{
  "contractName": "InterestCalculator",
  "abi": [
    {
      "inputs": [],
      "stateMutability": "nonpayable",
      "type": "constructor"
    },
    {
      "inputs": [],
      "name": "admin",
      "outputs": [
        {
          "internalType": "address",
          "name": "",
          "type": "address"
        }
      ],
      "stateMutability": "view",
      "type": "function"
    },
    {
      "inputs": [],
      "name": "baseRatePerBlock",
      "outputs": [
        {
          "internalType": "uint256",
          "name": "",
          "type": "uint256"
        }
      ],
      "stateMutability": "view",
      "type": "function"
    },
    {
      "inputs": [],
      "name": "kink",
      "outputs": [
        {
          "internalType": "uint256",
          "name": "",
          "type": "uint256"
        }
      ],
      "stateMutability": "view",
      "type": "function"
    },
    {
      "inputs": [],
      "name": "kinkBaseRatePerBlock",
      "outputs": [
        {
          "internalType": "uint256",
          "name": "",
          "type": "uint256"
        }
      ],
      "stateMutability": "view",
      "type": "function"
    },
    {
      "inputs": [],
      "name": "kinkMultiplierPerBlock",
      "outputs": [
        {
          "internalType": "uint256",
          "name": "",
          "type": "uint256"
        }
      ],
      "stateMutability": "view",
      "type": "function"
    },
    {
      "inputs": [],
      "name": "multiplierPerBlock",
      "outputs": [
        {
          "internalType": "uint256",
          "name": "",
          "type": "uint256"
        }
      ],
      "stateMutability": "view",
      "type": "function"
    },
    {
      "inputs": [
        {
          "internalType": "uint256",
          "name": "cash",
          "type": "uint256"
        },
        {
          "internalType": "uint256",
          "name": "borrows",
          "type": "uint256"
        },
        {
          "internalType": "uint256",
          "name": "reserves",
          "type": "uint256"
        }
      ],
      "name": "utilizationRate",
      "outputs": [
        {
          "internalType": "uint256",
          "name": "",
          "type": "uint256"
        }
      ],
      "stateMutability": "pure",
      "type": "function"
    },
    {
      "inputs": [
        {
          "internalType": "uint256",
          "name": "cash",
          "type": "uint256"
        },
        {
          "internalType": "uint256",
          "name": "borrows",
          "type": "uint256"
        },
        {
          "internalType": "uint256",
          "name": "reserves",
          "type": "uint256"
        },
        {
          "internalType": "uint256",
          "name": "reserveFactor",
          "type": "uint256"
        }
      ],
      "name": "getSupplyRate",
      "outputs": [
        {
          "internalType": "uint256",
          "name": "",
          "type": "uint256"
        }
      ],
      "stateMutability": "view",
      "type": "function"
    },
    {
      "inputs": [
        {
          "internalType": "uint256",
          "name": "cash",
          "type": "uint256"
        },
        {
          "internalType": "uint256",
          "name": "borrows",
          "type": "uint256"
        },
        {
          "internalType": "uint256",
          "name": "reserves",
          "type": "uint256"
        }
      ],
      "name": "getBorrowRate",
      "outputs": [
        {
          "internalType": "uint256",
          "name": "",
          "type": "uint256"
        }
      ],
      "stateMutability": "view",
      "type": "function"
    }
  ],
  "bytecode": "0x60806040526445cd78f6006001556438407b70006002556505d29ae57500600355647083f1d080600455670b1a2bc2ec50000060055534801561004157600080fd5b50336000806101000a81548173ffffffffffffffffffffffffffffffffffffffff021916908373ffffffffffffffffffffffffffffffffffffffff16021790555061082a806100916000396000f3fe608060405234801561001057600080fd5b50600436106100935760003560e01c80638726bb89116100665780638726bb8914610180578063b81688161461019e578063f14039de146101fe578063f851a4401461021c578063fd2da3391461025057610093565b80630e56a1d31461009857806315f24053146100b65780636e71e2d81461010c5780636eac4f5814610162575b600080fd5b6100a061026e565b6040518082815260200191505060405180910390f35b6100f6600480360360608110156100cc57600080fd5b81019080803590602001909291908035906020019092919080359060200190929190505050610274565b6040518082815260200191505060405180910390f35b61014c6004803603606081101561012257600080fd5b8101908080359060200190929190803590602001909291908035906020019092919050505061028a565b6040518082815260200191505060405180910390f35b61016a6102f8565b6040518082815260200191505060405180910390f35b6101886102fe565b6040518082815260200191505060405180910390f35b6101e8600480360360808110156101b457600080fd5b8101908080359060200190929190803590602001909291908035906020019092919080359060200190929190505050610304565b6040518082815260200191505060405180910390f35b6102066103a8565b6040518082815260200191505060405180910390f35b6102246103ae565b604051808273ffffffffffffffffffffffffffffffffffffffff16815260200191505060405180910390f35b6102586103d2565b6040518082815260200191505060405180910390f35b60035481565b60006102818484846103d8565b90509392505050565b60008083141561029d57600090506102f1565b6102ee6102c5836102b786886104ab90919063ffffffff16565b61053390919063ffffffff16565b6102e0670de0b6b3a76400008661057d90919063ffffffff16565b61060390919063ffffffff16565b90505b9392505050565b60045481565b60015481565b60008061031286868661028a565b905060006103218787876103d8565b9050600061036c670de0b6b3a764000061035e61034f88670de0b6b3a764000061053390919063ffffffff16565b8561057d90919063ffffffff16565b61060390919063ffffffff16565b905061039b670de0b6b3a764000061038d838661057d90919063ffffffff16565b61060390919063ffffffff16565b9350505050949350505050565b60025481565b60008054906101000a900473ffffffffffffffffffffffffffffffffffffffff1681565b60055481565b6000806103e685858561028a565b905060055481101561043d57610435600254610427670de0b6b3a76400006104196001548661057d90919063ffffffff16565b61060390919063ffffffff16565b6104ab90919063ffffffff16565b9150506104a4565b600061045a670b1a2bc2ec5000008361053390919063ffffffff16565b905061049f600454610491670de0b6b3a76400006104838560035461057d90919063ffffffff16565b61060390919063ffffffff16565b6104ab90919063ffffffff16565b925050505b9392505050565b600080828401905083811015610529576040517f08c379a000000000000000000000000000000000000000000000000000000000815260040180806020018281038252601b8152602001807f536166654d6174683a206164646974696f6e206f766572666c6f77000000000081525060200191505060405180910390fd5b8091505092915050565b600061057583836040518060400160405280601f81526020017f536166654d6174683a207375627472616374696f6e20756e646572666c6f770081525061064d565b905092915050565b60008083141561059057600090506105fd565b60008284029050828482816105a157fe5b04146105f8576040517f08c379a00000000000000000000000000000000000000000000000000000000081526004018080602001828103825260218152602001806107d46021913960400191505060405180910390fd5b809150505b92915050565b600061064583836040518060400160405280601a81526020017f536166654d6174683a206469766973696f6e206279207a65726f00000000000081525061070d565b905092915050565b60008383111582906106fa576040517f08c379a00000000000000000000000000000000000000000000000000000000081526004018080602001828103825283818151815260200191508051906020019080838360005b838110156106bf5780820151818401526020810190506106a4565b50505050905090810190601f1680156106ec5780820380516001836020036101000a031916815260200191505b509250505060405180910390fd5b5060008385039050809150509392505050565b600080831182906107b9576040517f08c379a00000000000000000000000000000000000000000000000000000000081526004018080602001828103825283818151815260200191508051906020019080838360005b8381101561077e578082015181840152602081019050610763565b50505050905090810190601f1680156107ab5780820380516001836020036101000a031916815260200191505b509250505060405180910390fd5b5060008385816107c557fe5b04905080915050939250505056fe536166654d6174683a206d756c7469706c69636174696f6e206f766572666c6f77a26469706673582212203157674715ac4320bebbe3623022d122ef5bef6e30e79e8689c72db6f5826f9e64736f6c63430007060033",
  "immutableReferences": {},
  "source": "pragma solidity ^0.7.6;\n//SPDX-License-Identifier: MIT\n\nimport \"./InterestInterface.sol\";\n\nimport \"./utils/SafeMath.sol\";\n\n/** @title Interest Module for Paladin vToken pools  */\n/// @author Paladin - Valentin VIGER\ncontract InterestCalculator is InterestInterface {\n    using SafeMath for uint;\n\n    /** @notice admin address (contract creator) */\n    address public admin;\n\n    /** @notice base mulitplier for borrow rate */\n    uint public multiplierPerBlock = 0.0000002998e18;\n    /** @notice base borrow rate */\n    uint public baseRatePerBlock = 0.0000002416e18;\n    /** @notice mulitplier for borrow rate for the kink */\n    uint public kinkMultiplierPerBlock = 0.0000064021e18;\n    /** @notice borrow rate for the kink */\n    uint public kinkBaseRatePerBlock = 0.00000048325e18;\n    /** @notice  ratio of utilization rate at wihich we use kink_ values*/\n    uint public kink = 0.8e18;\n\n    constructor(){\n        admin = msg.sender;\n    }\n\n    /**\n    * @notice Calculates the Utilization Rate of a vToken Pool\n    * @dev Calculates the Utilization Rate of a vToken Pool depending of Cash, Borrows & Reserves\n    * @param cash Cash amount of the calling vToken Pool\n    * @param borrows Total Borrowed amount of the calling vToken Pool\n    * @param reserves Total Reserves amount of the calling vToken Pool\n    * @return uint : Utilisation Rate of the Pool (scale 1e18)\n    */\n    function utilizationRate(uint cash, uint borrows, uint reserves) public pure returns(uint){\n        //If no funds are borrowed, the Pool is not used\n        if(borrows == 0){\n            return 0;\n        }\n        // Utilization Rate = Borrows / (Cash + Borrows - Reserves)\n        return borrows.mul(1e18).div(cash.add(borrows).sub(reserves));\n    }\n\n    /**\n    * @notice Calculates the Supply Rate for the calling vToken Pool\n    * @dev Calculates the Supply Rate depending on the Pool Borrow Rate & Reserve Factor\n    * @param cash Cash amount of the calling vToken Pool\n    * @param borrows Total Borrowed amount of the calling vToken Pool\n    * @param reserves Total Reserves amount of the calling vToken Pool\n    * @param reserveFactor Reserve Factor of the calling vToken Pool\n    * @return uint : Supply Rate for the Pool (scale 1e18)\n    */\n    function getSupplyRate(uint cash, uint borrows, uint reserves, uint reserveFactor) external view override returns(uint){\n        //Fetch the Pool Utilisation Rate & Borrow Rate\n        uint _utilRate = utilizationRate(cash, borrows, reserves);\n        uint _bRate = _borrowRate(cash, borrows, reserves);\n\n        //Supply Rate = Utilization Rate * (Borrow Rate - Reserve Factor)\n        uint _tempRate = _bRate.mul(uint(1e18).sub(reserveFactor)).div(1e18);\n        return _utilRate.mul(_tempRate).div(1e18);\n    }\n    \n    /**\n    * @notice Get the Borrow Rate for a vToken Pool depending on the given parameters\n    * @dev Calls the internal fucntion _borrowRate\n    * @param cash Cash amount of the calling vToken Pool\n    * @param borrows Total Borrowed amount of the calling vToken Pool\n    * @param reserves Total Reserves amount of the calling vToken Pool\n    * @return uint : Borrow Rate for the Pool (scale 1e18)\n    */\n    function getBorrowRate(uint cash, uint borrows, uint reserves) external view override returns(uint){\n        //Internal call\n        return _borrowRate(cash, borrows, reserves);\n    }\n\n    /**\n    * @dev Calculates the Borrow Rate for the vToken pool, depending on the utilisation rate & the kink value.\n    * @param cash Cash amount of the calling vToken Pool\n    * @param borrows Total Borrowed amount of the calling vToken Pool\n    * @param reserves Total Reserves amount of the calling vToken Pool\n    * @return uint : Borrow Rate for the Pool (scale 1e18)\n    */\n    function _borrowRate(uint cash, uint borrows, uint reserves) internal view returns(uint){\n        //Fetch the utilisation rate\n        uint _utilRate = utilizationRate(cash, borrows, reserves);\n        //If the Utilization Rate is less than the Kink value\n        // Borrow Rate = Multiplier * Utilization Rate + Base Rate\n        if(_utilRate < kink) {\n            return _utilRate.mul(multiplierPerBlock).div(1e18).add(baseRatePerBlock);\n        }\n        //If the Utilization Rate is more than the Kink value\n        // Borrow Rate = Kink Multiplier * (Utilization Rate - 0.8) + Kink Rate\n        else {\n            uint _temp = _utilRate.sub(0.8e18);\n            return kinkMultiplierPerBlock.mul(_temp).div(1e18).add(kinkBaseRatePerBlock);\n        }\n    }\n}",
  "sourcePath": "/Users/valentin/Paladin-Protocol/contracts/InterestCalculator.sol",
  "compiler": {
    "name": "solc",
    "version": "0.7.6+commit.7338295f.Emscripten.clang"
  },
  "schemaVersion": "3.3.1",
  "updatedAt": "2021-02-04T19:56:28.730Z",
  "devdoc": {
    "author": "Paladin - Valentin VIGER",
    "kind": "dev",
    "methods": {
      "getBorrowRate(uint256,uint256,uint256)": {
        "details": "Calls the internal fucntion _borrowRate",
        "params": {
          "borrows": "Total Borrowed amount of the calling vToken Pool",
          "cash": "Cash amount of the calling vToken Pool",
          "reserves": "Total Reserves amount of the calling vToken Pool"
        },
        "returns": {
          "_0": "uint : Borrow Rate for the Pool (scale 1e18)"
        }
      },
      "getSupplyRate(uint256,uint256,uint256,uint256)": {
        "details": "Calculates the Supply Rate depending on the Pool Borrow Rate & Reserve Factor",
        "params": {
          "borrows": "Total Borrowed amount of the calling vToken Pool",
          "cash": "Cash amount of the calling vToken Pool",
          "reserveFactor": "Reserve Factor of the calling vToken Pool",
          "reserves": "Total Reserves amount of the calling vToken Pool"
        },
        "returns": {
          "_0": "uint : Supply Rate for the Pool (scale 1e18)"
        }
      },
      "utilizationRate(uint256,uint256,uint256)": {
        "details": "Calculates the Utilization Rate of a vToken Pool depending of Cash, Borrows & Reserves",
        "params": {
          "borrows": "Total Borrowed amount of the calling vToken Pool",
          "cash": "Cash amount of the calling vToken Pool",
          "reserves": "Total Reserves amount of the calling vToken Pool"
        },
        "returns": {
          "_0": "uint : Utilisation Rate of the Pool (scale 1e18)"
        }
      }
    },
    "version": 1
  },
  "userdoc": {
    "kind": "user",
    "methods": {
      "admin()": {
        "notice": "admin address (contract creator) "
      },
      "baseRatePerBlock()": {
        "notice": "base borrow rate "
      },
      "getBorrowRate(uint256,uint256,uint256)": {
        "notice": "Get the Borrow Rate for a vToken Pool depending on the given parameters"
      },
      "getSupplyRate(uint256,uint256,uint256,uint256)": {
        "notice": "Calculates the Supply Rate for the calling vToken Pool"
      },
      "kink()": {
        "notice": "ratio of utilization rate at wihich we use kink_ values"
      },
      "kinkBaseRatePerBlock()": {
        "notice": "borrow rate for the kink "
      },
      "kinkMultiplierPerBlock()": {
        "notice": "mulitplier for borrow rate for the kink "
      },
      "multiplierPerBlock()": {
        "notice": "base mulitplier for borrow rate "
      },
      "utilizationRate(uint256,uint256,uint256)": {
        "notice": "Calculates the Utilization Rate of a vToken Pool"
      }
    },
    "version": 1
  }
}