{
  "contractName": "InterestCalculator",
  "abi": [
    {
      "inputs": [],
      "stateMutability": "nonpayable",
      "type": "constructor"
    },
    {
      "inputs": [],
      "name": "admin",
      "outputs": [
        {
          "internalType": "address",
          "name": "",
          "type": "address"
        }
      ],
      "stateMutability": "view",
      "type": "function"
    },
    {
      "inputs": [],
      "name": "baseRatePerBlock",
      "outputs": [
        {
          "internalType": "uint256",
          "name": "",
          "type": "uint256"
        }
      ],
      "stateMutability": "view",
      "type": "function"
    },
    {
      "inputs": [],
      "name": "kink",
      "outputs": [
        {
          "internalType": "uint256",
          "name": "",
          "type": "uint256"
        }
      ],
      "stateMutability": "view",
      "type": "function"
    },
    {
      "inputs": [],
      "name": "kinkBaseRatePerBlock",
      "outputs": [
        {
          "internalType": "uint256",
          "name": "",
          "type": "uint256"
        }
      ],
      "stateMutability": "view",
      "type": "function"
    },
    {
      "inputs": [],
      "name": "kinkMultiplierPerBlock",
      "outputs": [
        {
          "internalType": "uint256",
          "name": "",
          "type": "uint256"
        }
      ],
      "stateMutability": "view",
      "type": "function"
    },
    {
      "inputs": [],
      "name": "multiplierPerBlock",
      "outputs": [
        {
          "internalType": "uint256",
          "name": "",
          "type": "uint256"
        }
      ],
      "stateMutability": "view",
      "type": "function"
    },
    {
      "inputs": [
        {
          "internalType": "uint256",
          "name": "cash",
          "type": "uint256"
        },
        {
          "internalType": "uint256",
          "name": "borrows",
          "type": "uint256"
        },
        {
          "internalType": "uint256",
          "name": "reserves",
          "type": "uint256"
        }
      ],
      "name": "utilizationRate",
      "outputs": [
        {
          "internalType": "uint256",
          "name": "",
          "type": "uint256"
        }
      ],
      "stateMutability": "pure",
      "type": "function"
    },
    {
      "inputs": [
        {
          "internalType": "uint256",
          "name": "cash",
          "type": "uint256"
        },
        {
          "internalType": "uint256",
          "name": "borrows",
          "type": "uint256"
        },
        {
          "internalType": "uint256",
          "name": "reserves",
          "type": "uint256"
        },
        {
          "internalType": "uint256",
          "name": "reserveFactor",
          "type": "uint256"
        }
      ],
      "name": "getSupplyRate",
      "outputs": [
        {
          "internalType": "uint256",
          "name": "",
          "type": "uint256"
        }
      ],
      "stateMutability": "view",
      "type": "function"
    },
    {
      "inputs": [
        {
          "internalType": "uint256",
          "name": "cash",
          "type": "uint256"
        },
        {
          "internalType": "uint256",
          "name": "borrows",
          "type": "uint256"
        },
        {
          "internalType": "uint256",
          "name": "reserves",
          "type": "uint256"
        }
      ],
      "name": "getBorrowRate",
      "outputs": [
        {
          "internalType": "uint256",
          "name": "",
          "type": "uint256"
        }
      ],
      "stateMutability": "view",
      "type": "function"
    }
  ],
  "bytecode": "0x60806040526502aed9b3bc00600155651619c8de38006002556539a27a56e400600355652aa1efb94e00600455670b1a2bc2ec50000060055534801561004457600080fd5b50336000806101000a81548173ffffffffffffffffffffffffffffffffffffffff021916908373ffffffffffffffffffffffffffffffffffffffff160217905550610809806100946000396000f3fe608060405234801561001057600080fd5b50600436106100935760003560e01c80638726bb89116100665780638726bb8914610180578063b81688161461019e578063f14039de146101fe578063f851a4401461021c578063fd2da3391461025057610093565b80630e56a1d31461009857806315f24053146100b65780636e71e2d81461010c5780636eac4f5814610162575b600080fd5b6100a061026e565b6040518082815260200191505060405180910390f35b6100f6600480360360608110156100cc57600080fd5b81019080803590602001909291908035906020019092919080359060200190929190505050610274565b6040518082815260200191505060405180910390f35b61014c6004803603606081101561012257600080fd5b8101908080359060200190929190803590602001909291908035906020019092919050505061028a565b6040518082815260200191505060405180910390f35b61016a6102f8565b6040518082815260200191505060405180910390f35b6101886102fe565b6040518082815260200191505060405180910390f35b6101e8600480360360808110156101b457600080fd5b8101908080359060200190929190803590602001909291908035906020019092919080359060200190929190505050610304565b6040518082815260200191505060405180910390f35b6102066103a8565b6040518082815260200191505060405180910390f35b6102246103ae565b604051808273ffffffffffffffffffffffffffffffffffffffff16815260200191505060405180910390f35b6102586103d2565b6040518082815260200191505060405180910390f35b60035481565b60006102818484846103d8565b90509392505050565b60008083141561029d57600090506102f1565b6102ee6102c5836102b7868861048a90919063ffffffff16565b61051290919063ffffffff16565b6102e0670de0b6b3a76400008661055c90919063ffffffff16565b6105e290919063ffffffff16565b90505b9392505050565b60045481565b60015481565b60008061031286868661028a565b905060006103218787876103d8565b9050600061036c670de0b6b3a764000061035e61034f88670de0b6b3a764000061051290919063ffffffff16565b8561055c90919063ffffffff16565b6105e290919063ffffffff16565b905061039b670de0b6b3a764000061038d838661055c90919063ffffffff16565b6105e290919063ffffffff16565b9350505050949350505050565b60025481565b60008054906101000a900473ffffffffffffffffffffffffffffffffffffffff1681565b60055481565b6000806103e685858561028a565b9050600554811161043c57610434600254610426670de0b6b3a76400006104186001548661055c90919063ffffffff16565b6105e290919063ffffffff16565b61048a90919063ffffffff16565b915050610483565b61047f600454610471670de0b6b3a76400006104636003548661055c90919063ffffffff16565b6105e290919063ffffffff16565b61048a90919063ffffffff16565b9150505b9392505050565b600080828401905083811015610508576040517f08c379a000000000000000000000000000000000000000000000000000000000815260040180806020018281038252601b8152602001807f536166654d6174683a206164646974696f6e206f766572666c6f77000000000081525060200191505060405180910390fd5b8091505092915050565b600061055483836040518060400160405280601f81526020017f536166654d6174683a207375627472616374696f6e20756e646572666c6f770081525061062c565b905092915050565b60008083141561056f57600090506105dc565b600082840290508284828161058057fe5b04146105d7576040517f08c379a00000000000000000000000000000000000000000000000000000000081526004018080602001828103825260218152602001806107b36021913960400191505060405180910390fd5b809150505b92915050565b600061062483836040518060400160405280601a81526020017f536166654d6174683a206469766973696f6e206279207a65726f0000000000008152506106ec565b905092915050565b60008383111582906106d9576040517f08c379a00000000000000000000000000000000000000000000000000000000081526004018080602001828103825283818151815260200191508051906020019080838360005b8381101561069e578082015181840152602081019050610683565b50505050905090810190601f1680156106cb5780820380516001836020036101000a031916815260200191505b509250505060405180910390fd5b5060008385039050809150509392505050565b60008083118290610798576040517f08c379a00000000000000000000000000000000000000000000000000000000081526004018080602001828103825283818151815260200191508051906020019080838360005b8381101561075d578082015181840152602081019050610742565b50505050905090810190601f16801561078a5780820380516001836020036101000a031916815260200191505b509250505060405180910390fd5b5060008385816107a457fe5b04905080915050939250505056fe536166654d6174683a206d756c7469706c69636174696f6e206f766572666c6f77a26469706673582212204c6470c552efce067f6b9afea3a3ff6bd5fe6a320c6ad51aa17b412cf6cb48c164736f6c63430007060033",
  "immutableReferences": {},
  "source": "pragma solidity ^0.7.6;\n//SPDX-License-Identifier: MIT\n\nimport \"./InterestInterface.sol\";\n\nimport \"./utils/SafeMath.sol\";\n\n\ncontract InterestCalculator is InterestInterface {\n    using SafeMath for uint;\n\n    address public admin;\n\n    uint public multiplierPerBlock = 0.00000295e18;\n    uint public baseRatePerBlock = 0.0000243e18;\n    uint public kinkMultiplierPerBlock = 0.00006337e18;\n    uint public kinkBaseRatePerBlock = 0.000046875e18;\n    uint public kink = 0.8e18;\n\n    constructor(){\n        admin = msg.sender;\n    }\n\n    function utilizationRate(uint cash, uint borrows, uint reserves) public pure returns(uint){\n        if(borrows == 0){\n            return 0;\n        }\n        return borrows.mul(1e18).div(cash.add(borrows).sub(reserves));\n    }\n\n    function getSupplyRate(uint cash, uint borrows, uint reserves, uint reserveFactor) external view override returns(uint){\n        uint _utilRate = utilizationRate(cash, borrows, reserves);\n        uint _bRate = _borrowRate(cash, borrows, reserves);\n        uint _tempRate = _bRate.mul(uint(1e18).sub(reserveFactor)).div(1e18);\n        return _utilRate.mul(_tempRate).div(1e18);\n    }\n    \n    function getBorrowRate(uint cash, uint borrows, uint reserves) external view override returns(uint){\n        return _borrowRate(cash, borrows, reserves);\n    }\n\n    function _borrowRate(uint cash, uint borrows, uint reserves) internal view returns(uint){\n        uint _utilRate = utilizationRate(cash, borrows, reserves);\n        if(_utilRate <= kink) {\n            return _utilRate.mul(multiplierPerBlock).div(1e18).add(baseRatePerBlock);\n        } \n        else {\n            return _utilRate.mul(kinkMultiplierPerBlock).div(1e18).add(kinkBaseRatePerBlock);\n        }\n    }\n}",
  "sourcePath": "/Users/valentin/Paladin-Protocol/contracts/InterestCalculator.sol",
  "compiler": {
    "name": "solc",
    "version": "0.7.6+commit.7338295f.Emscripten.clang"
  },
  "schemaVersion": "3.3.1",
  "updatedAt": "2021-02-02T11:52:20.331Z",
  "devdoc": {
    "kind": "dev",
    "methods": {},
    "version": 1
  },
  "userdoc": {
    "kind": "user",
    "methods": {},
    "version": 1
  }
}