{
  "contractName": "PaladinController",
  "abi": [
    {
      "inputs": [],
      "stateMutability": "nonpayable",
      "type": "constructor"
    },
    {
      "anonymous": false,
      "inputs": [
        {
          "indexed": false,
          "internalType": "address",
          "name": "oldAdmin",
          "type": "address"
        },
        {
          "indexed": false,
          "internalType": "address",
          "name": "newAdmin",
          "type": "address"
        }
      ],
      "name": "NewAdmin",
      "type": "event"
    },
    {
      "anonymous": false,
      "inputs": [
        {
          "indexed": false,
          "internalType": "address",
          "name": "vToken",
          "type": "address"
        }
      ],
      "name": "NewVToken",
      "type": "event"
    },
    {
      "inputs": [
        {
          "internalType": "uint256",
          "name": "",
          "type": "uint256"
        }
      ],
      "name": "vTokens",
      "outputs": [
        {
          "internalType": "address",
          "name": "",
          "type": "address"
        }
      ],
      "stateMutability": "view",
      "type": "function"
    },
    {
      "inputs": [],
      "name": "getVTokens",
      "outputs": [
        {
          "internalType": "address[]",
          "name": "",
          "type": "address[]"
        }
      ],
      "stateMutability": "view",
      "type": "function"
    },
    {
      "inputs": [
        {
          "internalType": "address",
          "name": "vToken",
          "type": "address"
        }
      ],
      "name": "addNewVToken",
      "outputs": [
        {
          "internalType": "bool",
          "name": "",
          "type": "bool"
        }
      ],
      "stateMutability": "nonpayable",
      "type": "function"
    },
    {
      "inputs": [
        {
          "internalType": "address",
          "name": "vToken",
          "type": "address"
        },
        {
          "internalType": "uint256",
          "name": "amount",
          "type": "uint256"
        }
      ],
      "name": "withdrawPossible",
      "outputs": [
        {
          "internalType": "bool",
          "name": "",
          "type": "bool"
        }
      ],
      "stateMutability": "view",
      "type": "function"
    },
    {
      "inputs": [
        {
          "internalType": "address",
          "name": "vToken",
          "type": "address"
        },
        {
          "internalType": "uint256",
          "name": "amount",
          "type": "uint256"
        }
      ],
      "name": "borrowPossible",
      "outputs": [
        {
          "internalType": "bool",
          "name": "",
          "type": "bool"
        }
      ],
      "stateMutability": "view",
      "type": "function"
    },
    {
      "inputs": [
        {
          "internalType": "address",
          "name": "vToken",
          "type": "address"
        },
        {
          "internalType": "address",
          "name": "dest",
          "type": "address"
        },
        {
          "internalType": "uint256",
          "name": "amount",
          "type": "uint256"
        }
      ],
      "name": "depositVerify",
      "outputs": [
        {
          "internalType": "bool",
          "name": "",
          "type": "bool"
        }
      ],
      "stateMutability": "view",
      "type": "function"
    },
    {
      "inputs": [
        {
          "internalType": "address",
          "name": "vToken",
          "type": "address"
        },
        {
          "internalType": "address",
          "name": "borrower",
          "type": "address"
        },
        {
          "internalType": "uint256",
          "name": "amount",
          "type": "uint256"
        },
        {
          "internalType": "uint256",
          "name": "feesAmount",
          "type": "uint256"
        },
        {
          "internalType": "address",
          "name": "loanPool",
          "type": "address"
        }
      ],
      "name": "borrowVerify",
      "outputs": [
        {
          "internalType": "bool",
          "name": "",
          "type": "bool"
        }
      ],
      "stateMutability": "view",
      "type": "function"
    },
    {
      "inputs": [
        {
          "internalType": "address payable",
          "name": "newAdmin",
          "type": "address"
        }
      ],
      "name": "setNewAdmin",
      "outputs": [
        {
          "internalType": "bool",
          "name": "",
          "type": "bool"
        }
      ],
      "stateMutability": "nonpayable",
      "type": "function"
    }
  ],
  "bytecode": "0x608060405234801561001057600080fd5b50336000806101000a81548173ffffffffffffffffffffffffffffffffffffffff021916908373ffffffffffffffffffffffffffffffffffffffff160217905550610b18806100606000396000f3fe608060405234801561001057600080fd5b50600436106100885760003560e01c80638eec99c81161005b5780638eec99c81461022e57806393cb090e1461028857806399bf049a146102e0578063f949020f1461038e57610088565b80630f0f4d551461008d5780634bb1a28d146100e7578063781261301461014b578063806f8ab2146101aa575b600080fd5b6100cf600480360360208110156100a357600080fd5b81019080803573ffffffffffffffffffffffffffffffffffffffff1690602001909291905050506103f2565b60405180821515815260200191505060405180910390f35b610133600480360360408110156100fd57600080fd5b81019080803573ffffffffffffffffffffffffffffffffffffffff16906020019092919080359060200190929190505050610522565b60405180821515815260200191505060405180910390f35b61015361065c565b6040518080602001828103825283818151815260200191508051906020019060200280838360005b8381101561019657808201518184015260208101905061017b565b505050509050019250505060405180910390f35b610216600480360360608110156101c057600080fd5b81019080803573ffffffffffffffffffffffffffffffffffffffff169060200190929190803573ffffffffffffffffffffffffffffffffffffffff169060200190929190803590602001909291905050506106ea565b60405180821515815260200191505060405180910390f35b6102706004803603602081101561024457600080fd5b81019080803573ffffffffffffffffffffffffffffffffffffffff1690602001909291905050506106f7565b60405180821515815260200191505060405180910390f35b6102b46004803603602081101561029e57600080fd5b8101908080359060200190929190505050610804565b604051808273ffffffffffffffffffffffffffffffffffffffff16815260200191505060405180910390f35b610376600480360360a08110156102f657600080fd5b81019080803573ffffffffffffffffffffffffffffffffffffffff169060200190929190803573ffffffffffffffffffffffffffffffffffffffff1690602001909291908035906020019092919080359060200190929190803573ffffffffffffffffffffffffffffffffffffffff169060200190929190505050610843565b60405180821515815260200191505060405180910390f35b6103da600480360360408110156103a457600080fd5b81019080803573ffffffffffffffffffffffffffffffffffffffff169060200190929190803590602001909291905050506109a8565b60405180821515815260200191505060405180910390f35b60008060009054906101000a900473ffffffffffffffffffffffffffffffffffffffff1673ffffffffffffffffffffffffffffffffffffffff163373ffffffffffffffffffffffffffffffffffffffff16146104b6576040517f08c379a000000000000000000000000000000000000000000000000000000000815260040180806020018281038252600e8152602001807f41646d696e2066756e6374696f6e00000000000000000000000000000000000081525060200191505060405180910390fd5b6001829080600181540180825580915050600190039060005260206000200160009091909190916101000a81548173ffffffffffffffffffffffffffffffffffffffff021916908373ffffffffffffffffffffffffffffffffffffffff16021790555060019050919050565b60008083905060008173ffffffffffffffffffffffffffffffffffffffff16636f307dc36040518163ffffffff1660e01b815260040160206040518083038186803b15801561057057600080fd5b505afa158015610584573d6000803e3d6000fd5b505050506040513d602081101561059a57600080fd5b81019080805190602001909291905050509050838173ffffffffffffffffffffffffffffffffffffffff166370a08231876040518263ffffffff1660e01b8152600401808273ffffffffffffffffffffffffffffffffffffffff16815260200191505060206040518083038186803b15801561061557600080fd5b505afa158015610629573d6000803e3d6000fd5b505050506040513d602081101561063f57600080fd5b810190808051906020019092919050505010159250505092915050565b606060018054806020026020016040519081016040528092919081815260200182805480156106e057602002820191906000526020600020905b8160009054906101000a900473ffffffffffffffffffffffffffffffffffffffff1673ffffffffffffffffffffffffffffffffffffffff1681526020019060010190808311610696575b5050505050905090565b6000600190509392505050565b60008060009054906101000a900473ffffffffffffffffffffffffffffffffffffffff1673ffffffffffffffffffffffffffffffffffffffff163373ffffffffffffffffffffffffffffffffffffffff16146107bb576040517f08c379a000000000000000000000000000000000000000000000000000000000815260040180806020018281038252600e8152602001807f41646d696e2066756e6374696f6e00000000000000000000000000000000000081525060200191505060405180910390fd5b816000806101000a81548173ffffffffffffffffffffffffffffffffffffffff021916908373ffffffffffffffffffffffffffffffffffffffff16021790555060019050919050565b6001818154811061081457600080fd5b906000526020600020016000915054906101000a900473ffffffffffffffffffffffffffffffffffffffff1681565b60008086905060008060008060008060008773ffffffffffffffffffffffffffffffffffffffff166397cc96708b6040518263ffffffff1660e01b8152600401808273ffffffffffffffffffffffffffffffffffffffff16815260200191505060e06040518083038186803b1580156108bb57600080fd5b505afa1580156108cf573d6000803e3d6000fd5b505050506040513d60e08110156108e557600080fd5b810190808051906020019092919080519060200190929190805190602001909291908051906020019092919080519060200190929190805190602001909291908051906020019092919050505096509650965096509650965096508673ffffffffffffffffffffffffffffffffffffffff168d73ffffffffffffffffffffffffffffffffffffffff1614801561097a5750848c145b80156109855750828b145b8015610995575060001515811515145b9850505050505050505095945050505050565b60008083905060008173ffffffffffffffffffffffffffffffffffffffff16636f307dc36040518163ffffffff1660e01b815260040160206040518083038186803b1580156109f657600080fd5b505afa158015610a0a573d6000803e3d6000fd5b505050506040513d6020811015610a2057600080fd5b81019080805190602001909291905050509050838173ffffffffffffffffffffffffffffffffffffffff166370a08231876040518263ffffffff1660e01b8152600401808273ffffffffffffffffffffffffffffffffffffffff16815260200191505060206040518083038186803b158015610a9b57600080fd5b505afa158015610aaf573d6000803e3d6000fd5b505050506040513d6020811015610ac557600080fd5b81019080805190602001909291905050501015925050509291505056fea26469706673582212209de801588322a8c81cfb4bdb1d7f9eb950121a03d9ab2eb153a44fcdadc5a52264736f6c63430007060033",
  "immutableReferences": {},
  "source": "pragma solidity ^0.7.6;\n//SPDX-License-Identifier: MIT\n\nimport \"./utils/SafeMath.sol\";\nimport \"./PaladinControllerInterface.sol\";\nimport \"./VTokenInterface.sol\";\nimport \"./VToken.sol\";\nimport \"./utils/IERC20.sol\";\n\n/** @title Paladin Controller contract  */\n/// @author Paladin - Valentin VIGER\ncontract PaladinController is PaladinControllerInterface {\n    using SafeMath for uint;\n    \n\n    /** @dev Admin address for this contract */\n    address payable internal admin;\n\n    /** @notice List of current active vToken Pools */\n    address[] public vTokens;\n\n\n    constructor(){\n        admin = msg.sender;\n    }\n\n    //Check if an address is a valid vToken Pool\n    function _isVToken(address token) internal view returns(bool){\n        //Check if the given address is in the vToken list\n        for(uint i = 0; i < vTokens.length; i++){\n            if(vTokens[i] == token){\n                return true;\n            }\n        }\n        return false;\n    }\n\n    //Return the list of vToken Pools\n    function getVTokens() external view override returns(address[] memory){\n        return vTokens;\n    }\n\n    //Add a new vToken Pool to the list\n    function addNewVToken(address vToken) external override returns(bool){\n        //Add a new address to the vToken list\n        require(msg.sender == admin, \"Admin function\");\n        vTokens.push(vToken);\n        return true;\n    }    \n    \n    //Check if a Withdraw is possible for a given vToken Pool\n    function withdrawPossible(address vToken, uint amount) external view override returns(bool){\n        //Get the underlying balance of the vToken contract to check if the action is possible\n        VToken _vToken = VToken(vToken);\n        IERC20 underlying = _vToken.underlying();\n        return(underlying.balanceOf(vToken) >= amount);\n    }\n    \n    //Check if a Borrow is possible for a given vToken Pool\n    function borrowPossible(address vToken, uint amount) external view override returns(bool){\n        //Get the underlying balance of the vToken contract to check if the action is possible\n        VToken _vToken = VToken(vToken);\n        IERC20 underlying = _vToken.underlying();\n        return(underlying.balanceOf(vToken) >= amount);\n    }\n    \n    //Check if a Deposit was successful (to do)\n    function depositVerify(address vToken, address dest, uint amount) external view override returns(bool){\n        //Check if the minting succeeded\n        \n        //no method yet \n\n        return true;\n    }\n    \n    //Check if a Borrow was successful\n    function borrowVerify(address vToken, address borrower, uint amount, uint feesAmount, address loanPool) external view override returns(bool){\n        //Check if the borrow was successful\n        VTokenInterface _vToken = VTokenInterface(vToken);\n        (\n            address _borrower,\n            address _loanPool,\n            uint _amount,\n            address _underlying,\n            uint _feesAmount,\n            uint _feesUsed,\n            bool _closed\n        ) = _vToken.getBorrowDataStored(loanPool);\n        return(borrower == _borrower && amount == _amount && feesAmount == _feesAmount && _closed == false);\n    }\n        \n    \n    //Admin function\n\n    /**\n    * @notice Set a new Controller Admin\n    * @dev Changes the address for the admin parameter\n    * @param newAdmin address of the new Controller Admin\n    * @return bool : Update success\n    */\n    function setNewAdmin(address payable newAdmin) external override returns(bool){\n        require(msg.sender == admin, \"Admin function\");\n        admin = newAdmin;\n        return true;\n    }\n}",
  "sourcePath": "/Users/valentin/Paladin-Protocol/contracts/PaladinController.sol",
  "compiler": {
    "name": "solc",
    "version": "0.7.6+commit.7338295f.Emscripten.clang"
  },
  "schemaVersion": "3.3.1",
  "updatedAt": "2021-02-05T20:29:11.509Z",
  "devdoc": {
    "author": "Paladin - Valentin VIGER",
    "kind": "dev",
    "methods": {
      "setNewAdmin(address)": {
        "details": "Changes the address for the admin parameter",
        "params": {
          "newAdmin": "address of the new Controller Admin"
        },
        "returns": {
          "_0": "bool : Update success"
        }
      }
    },
    "stateVariables": {
      "admin": {
        "details": "Admin address for this contract "
      }
    },
    "version": 1
  },
  "userdoc": {
    "events": {
      "NewAdmin(address,address)": {
        "notice": "Event emitted when the contract admni is updated "
      },
      "NewVToken(address)": {
        "notice": "Event emitted when a new token is added to the list "
      }
    },
    "kind": "user",
    "methods": {
      "setNewAdmin(address)": {
        "notice": "Set a new Controller Admin"
      },
      "vTokens(uint256)": {
        "notice": "List of current active vToken Pools "
      }
    },
    "version": 1
  }
}