{
  "contractName": "VAaveLoanPool",
  "abi": [
    {
      "inputs": [
        {
          "internalType": "address",
          "name": "_motherPool",
          "type": "address"
        },
        {
          "internalType": "address",
          "name": "_borrower",
          "type": "address"
        },
        {
          "internalType": "address",
          "name": "_underlying",
          "type": "address"
        }
      ],
      "stateMutability": "nonpayable",
      "type": "constructor"
    },
    {
      "anonymous": false,
      "inputs": [
        {
          "indexed": false,
          "internalType": "address",
          "name": "borrower",
          "type": "address"
        },
        {
          "indexed": false,
          "internalType": "address",
          "name": "underlying",
          "type": "address"
        },
        {
          "indexed": false,
          "internalType": "uint256",
          "name": "addedFees",
          "type": "uint256"
        }
      ],
      "name": "ExpandLoan",
      "type": "event"
    },
    {
      "anonymous": false,
      "inputs": [
        {
          "indexed": false,
          "internalType": "address",
          "name": "borrower",
          "type": "address"
        },
        {
          "indexed": false,
          "internalType": "address",
          "name": "underlying",
          "type": "address"
        },
        {
          "indexed": false,
          "internalType": "uint256",
          "name": "amount",
          "type": "uint256"
        },
        {
          "indexed": false,
          "internalType": "uint256",
          "name": "startBlock",
          "type": "uint256"
        }
      ],
      "name": "StartLoan",
      "type": "event"
    },
    {
      "inputs": [],
      "name": "amount",
      "outputs": [
        {
          "internalType": "uint256",
          "name": "",
          "type": "uint256"
        }
      ],
      "stateMutability": "view",
      "type": "function"
    },
    {
      "inputs": [],
      "name": "borrower",
      "outputs": [
        {
          "internalType": "address",
          "name": "",
          "type": "address"
        }
      ],
      "stateMutability": "view",
      "type": "function"
    },
    {
      "inputs": [],
      "name": "feesAmount",
      "outputs": [
        {
          "internalType": "uint256",
          "name": "",
          "type": "uint256"
        }
      ],
      "stateMutability": "view",
      "type": "function"
    },
    {
      "inputs": [],
      "name": "motherPool",
      "outputs": [
        {
          "internalType": "address payable",
          "name": "",
          "type": "address"
        }
      ],
      "stateMutability": "view",
      "type": "function"
    },
    {
      "inputs": [],
      "name": "underlying",
      "outputs": [
        {
          "internalType": "address",
          "name": "",
          "type": "address"
        }
      ],
      "stateMutability": "view",
      "type": "function"
    },
    {
      "inputs": [
        {
          "internalType": "uint256",
          "name": "_amount",
          "type": "uint256"
        },
        {
          "internalType": "uint256",
          "name": "_feesAmount",
          "type": "uint256"
        }
      ],
      "name": "initiate",
      "outputs": [
        {
          "internalType": "bool",
          "name": "",
          "type": "bool"
        }
      ],
      "stateMutability": "nonpayable",
      "type": "function"
    },
    {
      "inputs": [
        {
          "internalType": "uint256",
          "name": "_newFeesAmount",
          "type": "uint256"
        }
      ],
      "name": "expand",
      "outputs": [
        {
          "internalType": "bool",
          "name": "",
          "type": "bool"
        }
      ],
      "stateMutability": "nonpayable",
      "type": "function"
    },
    {
      "inputs": [
        {
          "internalType": "uint256",
          "name": "_usedAmount",
          "type": "uint256"
        }
      ],
      "name": "closeLoan",
      "outputs": [],
      "stateMutability": "nonpayable",
      "type": "function"
    },
    {
      "inputs": [
        {
          "internalType": "address",
          "name": "_killer",
          "type": "address"
        },
        {
          "internalType": "uint256",
          "name": "killerRatio",
          "type": "uint256"
        }
      ],
      "name": "killLoan",
      "outputs": [],
      "stateMutability": "nonpayable",
      "type": "function"
    }
  ],
  "bytecode": "0x608060405234801561001057600080fd5b5060405161118d38038061118d8339818101604052606081101561003357600080fd5b8101908080519060200190929190805190602001909291908051906020019092919050505082600360006101000a81548173ffffffffffffffffffffffffffffffffffffffff021916908373ffffffffffffffffffffffffffffffffffffffff16021790555081600260006101000a81548173ffffffffffffffffffffffffffffffffffffffff021916908373ffffffffffffffffffffffffffffffffffffffff160217905550806000806101000a81548173ffffffffffffffffffffffffffffffffffffffff021916908373ffffffffffffffffffffffffffffffffffffffff1602179055505050506110618061012c6000396000f3fe608060405234801561001057600080fd5b50600436106100935760003560e01c8063a52b311311610066578063a52b311314610162578063aa8c217c146101b0578063be835507146101ce578063d05951a014610202578063f8cfe49d1461023057610093565b8063651f5d1814610098578063682904a5146100b65780636f307dc3146100fa5780637df1f1b91461012e575b600080fd5b6100a061027e565b6040518082815260200191505060405180910390f35b6100e2600480360360208110156100cc57600080fd5b8101908080359060200190929190505050610284565b60405180821515815260200191505060405180910390f35b61010261033e565b604051808273ffffffffffffffffffffffffffffffffffffffff16815260200191505060405180910390f35b610136610362565b604051808273ffffffffffffffffffffffffffffffffffffffff16815260200191505060405180910390f35b6101986004803603604081101561017857600080fd5b810190808035906020019092919080359060200190929190505050610388565b60405180821515815260200191505060405180910390f35b6101b8610444565b6040518082815260200191505060405180910390f35b6101d661044a565b604051808273ffffffffffffffffffffffffffffffffffffffff16815260200191505060405180910390f35b61022e6004803603602081101561021857600080fd5b8101908080359060200190929190505050610470565b005b61027c6004803603604081101561024657600080fd5b81019080803573ffffffffffffffffffffffffffffffffffffffff16906020019092919080359060200190929190505050610522565b005b60045481565b6000600360009054906101000a900473ffffffffffffffffffffffffffffffffffffffff1673ffffffffffffffffffffffffffffffffffffffff163373ffffffffffffffffffffffffffffffffffffffff161461032c576040517f08c379a000000000000000000000000000000000000000000000000000000000815260040180806020018281038252602b815260200180610fe0602b913960400191505060405180910390fd5b610335826105d6565b60019050919050565b60008054906101000a900473ffffffffffffffffffffffffffffffffffffffff1681565b600260009054906101000a900473ffffffffffffffffffffffffffffffffffffffff1681565b6000600360009054906101000a900473ffffffffffffffffffffffffffffffffffffffff1673ffffffffffffffffffffffffffffffffffffffff163373ffffffffffffffffffffffffffffffffffffffff1614610430576040517f08c379a000000000000000000000000000000000000000000000000000000000815260040180806020018281038252602b815260200180610fe0602b913960400191505060405180910390fd5b61043a83836106a9565b6001905092915050565b60015481565b600360009054906101000a900473ffffffffffffffffffffffffffffffffffffffff1681565b600360009054906101000a900473ffffffffffffffffffffffffffffffffffffffff1673ffffffffffffffffffffffffffffffffffffffff163373ffffffffffffffffffffffffffffffffffffffff1614610516576040517f08c379a000000000000000000000000000000000000000000000000000000000815260040180806020018281038252602b815260200180610fe0602b913960400191505060405180910390fd5b61051f81610844565b50565b600360009054906101000a900473ffffffffffffffffffffffffffffffffffffffff1673ffffffffffffffffffffffffffffffffffffffff163373ffffffffffffffffffffffffffffffffffffffff16146105c8576040517f08c379a000000000000000000000000000000000000000000000000000000000815260040180806020018281038252602b815260200180610fe0602b913960400191505060405180910390fd5b6105d28282610a75565b5050565b6105eb81600454610cb790919063ffffffff16565b6004819055507fe9a9adb0b2e61bedad86826bb982a5755754c117cb4101211e424cb271e4b03e600260009054906101000a900473ffffffffffffffffffffffffffffffffffffffff1660008054906101000a900473ffffffffffffffffffffffffffffffffffffffff1683604051808473ffffffffffffffffffffffffffffffffffffffff1681526020018373ffffffffffffffffffffffffffffffffffffffff168152602001828152602001935050505060405180910390a150565b816001819055508060048190555060008060009054906101000a900473ffffffffffffffffffffffffffffffffffffffff1690508073ffffffffffffffffffffffffffffffffffffffff16635c19a95c600260009054906101000a900473ffffffffffffffffffffffffffffffffffffffff166040518263ffffffff1660e01b8152600401808273ffffffffffffffffffffffffffffffffffffffff168152602001915050600060405180830381600087803b15801561076857600080fd5b505af115801561077c573d6000803e3d6000fd5b505050507f6fd996ae51e5db06926901397ed16c7df9a78f9a738d29d3fc9e1d2adf1e7c9c600260009054906101000a900473ffffffffffffffffffffffffffffffffffffffff1660008054906101000a900473ffffffffffffffffffffffffffffffffffffffff1660015443604051808573ffffffffffffffffffffffffffffffffffffffff1681526020018473ffffffffffffffffffffffffffffffffffffffff16815260200183815260200182815260200194505050505060405180910390a1505050565b60008060009054906101000a900473ffffffffffffffffffffffffffffffffffffffff169050600061088183600454610d3f90919063ffffffff16565b9050600061089a84600154610cb790919063ffffffff16565b90508273ffffffffffffffffffffffffffffffffffffffff1663a9059cbb600260009054906101000a900473ffffffffffffffffffffffffffffffffffffffff16846040518363ffffffff1660e01b8152600401808373ffffffffffffffffffffffffffffffffffffffff16815260200182815260200192505050602060405180830381600087803b15801561092f57600080fd5b505af1158015610943573d6000803e3d6000fd5b505050506040513d602081101561095957600080fd5b8101908080519060200190929190505050508273ffffffffffffffffffffffffffffffffffffffff1663a9059cbb600360009054906101000a900473ffffffffffffffffffffffffffffffffffffffff16836040518363ffffffff1660e01b8152600401808373ffffffffffffffffffffffffffffffffffffffff16815260200182815260200192505050602060405180830381600087803b1580156109fe57600080fd5b505af1158015610a12573d6000803e3d6000fd5b505050506040513d6020811015610a2857600080fd5b810190808051906020019092919050505050600360009054906101000a900473ffffffffffffffffffffffffffffffffffffffff1673ffffffffffffffffffffffffffffffffffffffff16ff5b60008060009054906101000a900473ffffffffffffffffffffffffffffffffffffffff1690506000610acc670de0b6b3a7640000610abe85600454610d8990919063ffffffff16565b610e0f90919063ffffffff16565b90506000610ae7600454600154610cb790919063ffffffff16565b90506000610afe8383610d3f90919063ffffffff16565b90508373ffffffffffffffffffffffffffffffffffffffff1663a9059cbb87856040518363ffffffff1660e01b8152600401808373ffffffffffffffffffffffffffffffffffffffff16815260200182815260200192505050602060405180830381600087803b158015610b7157600080fd5b505af1158015610b85573d6000803e3d6000fd5b505050506040513d6020811015610b9b57600080fd5b8101908080519060200190929190505050508373ffffffffffffffffffffffffffffffffffffffff1663a9059cbb600360009054906101000a900473ffffffffffffffffffffffffffffffffffffffff16836040518363ffffffff1660e01b8152600401808373ffffffffffffffffffffffffffffffffffffffff16815260200182815260200192505050602060405180830381600087803b158015610c4057600080fd5b505af1158015610c54573d6000803e3d6000fd5b505050506040513d6020811015610c6a57600080fd5b810190808051906020019092919050505050600360009054906101000a900473ffffffffffffffffffffffffffffffffffffffff1673ffffffffffffffffffffffffffffffffffffffff16ff5b600080828401905083811015610d35576040517f08c379a000000000000000000000000000000000000000000000000000000000815260040180806020018281038252601b8152602001807f536166654d6174683a206164646974696f6e206f766572666c6f77000000000081525060200191505060405180910390fd5b8091505092915050565b6000610d8183836040518060400160405280601f81526020017f536166654d6174683a207375627472616374696f6e20756e646572666c6f7700815250610e59565b905092915050565b600080831415610d9c5760009050610e09565b6000828402905082848281610dad57fe5b0414610e04576040517f08c379a000000000000000000000000000000000000000000000000000000000815260040180806020018281038252602181526020018061100b6021913960400191505060405180910390fd5b809150505b92915050565b6000610e5183836040518060400160405280601a81526020017f536166654d6174683a206469766973696f6e206279207a65726f000000000000815250610f19565b905092915050565b6000838311158290610f06576040517f08c379a00000000000000000000000000000000000000000000000000000000081526004018080602001828103825283818151815260200191508051906020019080838360005b83811015610ecb578082015181840152602081019050610eb0565b50505050905090810190601f168015610ef85780820380516001836020036101000a031916815260200191505b509250505060405180910390fd5b5060008385039050809150509392505050565b60008083118290610fc5576040517f08c379a00000000000000000000000000000000000000000000000000000000081526004018080602001828103825283818151815260200191508051906020019080838360005b83811015610f8a578082015181840152602081019050610f6f565b50505050905090810190601f168015610fb75780820380516001836020036101000a031916815260200191505b509250505060405180910390fd5b506000838581610fd157fe5b04905080915050939250505056fe4f6e6c7920746865206f726967696e20506f6f6c2063616e2063616c6c20746869732066756e6374696f6e536166654d6174683a206d756c7469706c69636174696f6e206f766572666c6f77a264697066735822122081480c7e6e00306fc10bd8785c72a944ea11c4e9ee1ab82795ca04a106941a6264736f6c63430007060033",
  "immutableReferences": {},
  "source": "pragma solidity ^0.7.6;\n//SPDX-License-Identifier: MIT\n\nimport \"./VLoanPoolInterface.sol\";\nimport \"../utils/IERC20.sol\";\nimport \"../utils/SafeMath.sol\";\nimport \"../tokens/AAVE/IGovernancePowerDelegationToken.sol\";\n\ncontract VAaveLoanPool is VLoanPoolInterface {\n    using SafeMath for uint;\n\n    //Variables\n    address public underlying;\n    uint public amount;\n\n    address public borrower;\n    address payable public motherPool;\n\n    uint public feesAmount;\n\n    //Functions\n    constructor(address _motherPool, address _borrower, address _underlying){\n        //Set up initial values\n        motherPool = payable(_motherPool);\n        borrower = _borrower;\n        underlying = _underlying;\n    }\n\n    function initiate(uint _amount, uint _feesAmount) external override returns(bool){\n        require(msg.sender == motherPool, \"Only the origin Pool can call this function\");\n        _initiate(_amount, _feesAmount);\n        return true;\n    }\n\n    function _initiate(uint _amount, uint _feesAmount) internal {\n        //Set up the borrowed amount and the amount of fees paid\n        amount = _amount;\n        feesAmount = _feesAmount;\n        \n        //Delegate governance power : AAVE version\n        IGovernancePowerDelegationToken govToken = IGovernancePowerDelegationToken(underlying);\n        govToken.delegate(borrower);\n        emit StartLoan(borrower, underlying, amount, block.number);\n    }\n\n    function expand(uint _newFeesAmount) external override returns(bool){\n        require(msg.sender == motherPool, \"Only the origin Pool can call this function\");\n        _expand(_newFeesAmount);\n        return true;\n    }\n\n    function _expand(uint _newFeesAmount) internal {\n        //Update the amount of paid fees if the loan is expanded\n        feesAmount = feesAmount.add(_newFeesAmount);\n        emit ExpandLoan(borrower, underlying, _newFeesAmount);\n    }\n\n    function closeLoan(uint _usedAmount) external override {\n        require(msg.sender == motherPool, \"Only the origin Pool can call this function\");\n        return _close(_usedAmount);\n    }\n\n    function _close(uint _usedAmount) internal {\n        IERC20 _underlying = IERC20(underlying);\n        \n        //Return the remaining amount to the borrower\n        //Then return the borrowed amount and the used fees to the pool\n        uint _returnAmount = feesAmount.sub(_usedAmount);\n        uint _keepAmount = amount.add(_usedAmount);\n        _underlying.transfer(borrower, _returnAmount);\n        _underlying.transfer(motherPool, _keepAmount);\n\n        //Destruct the contract (to get gas refund on the transaction)\n        selfdestruct(motherPool);\n    }\n\n    function killLoan(address _killer, uint killerRatio) external override {\n        require(msg.sender == motherPool, \"Only the origin Pool can call this function\");\n        return _kill(_killer, killerRatio);\n    }\n\n    function _kill(address _killer, uint killerRatio) internal {\n        IERC20 _underlying = IERC20(underlying);\n        \n        //Send the killer reward to the killer\n        //Then return the borrowed amount and the fees to the pool\n        uint _killerAmount = feesAmount.mul(killerRatio).div(uint(1e18));\n        uint _balance = amount.add(feesAmount);\n        uint _poolAmount = _balance.sub(_killerAmount);\n        _underlying.transfer(_killer, _killerAmount);\n        _underlying.transfer(motherPool, _poolAmount);\n\n        //Destruct the contract (to get gas refund on the transaction)\n        selfdestruct(motherPool);\n    }\n}",
  "sourcePath": "/Users/valentin/Paladin-Protocol/contracts/vLoanPools/VAaveLoanPool.sol",
  "compiler": {
    "name": "solc",
    "version": "0.7.6+commit.7338295f.Emscripten.clang"
  },
  "schemaVersion": "3.3.1",
  "updatedAt": "2021-02-02T11:52:20.397Z",
  "devdoc": {
    "kind": "dev",
    "methods": {},
    "version": 1
  },
  "userdoc": {
    "kind": "user",
    "methods": {},
    "version": 1
  }
}