{
  "contractName": "VTokenStorage",
  "abi": [
    {
      "inputs": [],
      "name": "accrualBlockNumber",
      "outputs": [
        {
          "internalType": "uint256",
          "name": "",
          "type": "uint256"
        }
      ],
      "stateMutability": "view",
      "type": "function"
    },
    {
      "inputs": [],
      "name": "borrowIndex",
      "outputs": [
        {
          "internalType": "uint256",
          "name": "",
          "type": "uint256"
        }
      ],
      "stateMutability": "view",
      "type": "function"
    },
    {
      "inputs": [],
      "name": "controller",
      "outputs": [
        {
          "internalType": "contract PaladinControllerInterface",
          "name": "",
          "type": "address"
        }
      ],
      "stateMutability": "view",
      "type": "function"
    },
    {
      "inputs": [],
      "name": "reserveFactor",
      "outputs": [
        {
          "internalType": "uint256",
          "name": "",
          "type": "uint256"
        }
      ],
      "stateMutability": "view",
      "type": "function"
    },
    {
      "inputs": [],
      "name": "totalBorrowed",
      "outputs": [
        {
          "internalType": "uint256",
          "name": "",
          "type": "uint256"
        }
      ],
      "stateMutability": "view",
      "type": "function"
    },
    {
      "inputs": [],
      "name": "totalReserve",
      "outputs": [
        {
          "internalType": "uint256",
          "name": "",
          "type": "uint256"
        }
      ],
      "stateMutability": "view",
      "type": "function"
    },
    {
      "inputs": [],
      "name": "totalSupply",
      "outputs": [
        {
          "internalType": "uint256",
          "name": "",
          "type": "uint256"
        }
      ],
      "stateMutability": "view",
      "type": "function"
    },
    {
      "inputs": [],
      "name": "underlying",
      "outputs": [
        {
          "internalType": "contract IERC20",
          "name": "",
          "type": "address"
        }
      ],
      "stateMutability": "view",
      "type": "function"
    }
  ],
  "bytecode": "0x608060405260008060146101000a81548160ff02191690831515021790555066470de4df8200006005556702c68af0bb14000060065534801561004157600080fd5b5061024d806100516000396000f3fe608060405234801561001057600080fd5b50600436106100885760003560e01c80636c540baf1161005b5780636c540baf146101055780636f307dc314610123578063aa5af0fd14610157578063f77c47911461017557610088565b806318160ddd1461008d5780634322b714146100ab5780634c19386c146100c95780634c68df67146100e7575b600080fd5b6100956101a9565b6040518082815260200191505060405180910390f35b6100b36101af565b6040518082815260200191505060405180910390f35b6100d16101b5565b6040518082815260200191505060405180910390f35b6100ef6101bb565b6040518082815260200191505060405180910390f35b61010d6101c1565b6040518082815260200191505060405180910390f35b61012b6101c7565b604051808273ffffffffffffffffffffffffffffffffffffffff16815260200191505060405180910390f35b61015f6101eb565b6040518082815260200191505060405180910390f35b61017d6101f1565b604051808273ffffffffffffffffffffffffffffffffffffffff16815260200191505060405180910390f35b60045481565b60065481565b60035481565b60025481565b60075481565b60008054906101000a900473ffffffffffffffffffffffffffffffffffffffff1681565b60085481565b600c60009054906101000a900473ffffffffffffffffffffffffffffffffffffffff168156fea26469706673582212207477c8d16e8b7ea76bdbe21bd615f87ce13b97701bf57b8eb132a4edb0959b2b64736f6c63430007060033",
  "immutableReferences": {},
  "source": "pragma solidity ^0.7.6;\n//SPDX-License-Identifier: MIT\n\nimport \"./PaladinControllerInterface.sol\";\nimport \"./InterestInterface.sol\";\nimport \"./VTokenInterface.sol\";\nimport \"./utils/IERC20.sol\";\n\ncontract VTokenStorage {\n\n    struct Borrow {\n        address borrower;\n        address loanPool;\n        uint amount;\n        address underlying;\n        uint feesAmount;\n        uint borrowIndex;\n        bool closed;\n    }\n\n    //VToken variables & Mappings\n    IERC20 public underlying;\n\n    bool internal entered = false;\n\n    address payable internal admin;\n\n    uint public totalReserve;\n    uint public totalBorrowed;\n    uint public totalSupply;\n\n    uint internal constant maxBorrowRate = 0.0002e18;\n\n    uint internal constant killFactor = 0.15e18;\n    uint internal constant killerRatio = 0.98e18;\n\n    uint internal initialExchangeRate = 0.02e18;\n    uint public reserveFactor = 0.2e18;\n    uint public accrualBlockNumber;\n    uint public borrowIndex;\n\n    uint constant internal mantissaScale = 1e18;\n\n    mapping (address => address[]) internal borrowsByUser;\n    mapping (address => Borrow) internal loanToBorrow;\n    address[] internal borrows;\n\n\n    //Modules\n    PaladinControllerInterface public controller;\n    InterestInterface internal interestModule;\n    \n}",
  "sourcePath": "/Users/valentin/Paladin-Protocol/contracts/VTokenStorage.sol",
  "compiler": {
    "name": "solc",
    "version": "0.7.6+commit.7338295f.Emscripten.clang"
  },
  "schemaVersion": "3.3.1",
  "updatedAt": "2021-02-02T11:52:20.372Z",
  "devdoc": {
    "kind": "dev",
    "methods": {},
    "version": 1
  },
  "userdoc": {
    "kind": "user",
    "methods": {},
    "version": 1
  }
}