{
  "contractName": "VToken",
  "abi": [
    {
      "inputs": [
        {
          "internalType": "string",
          "name": "_name",
          "type": "string"
        },
        {
          "internalType": "string",
          "name": "_symbol",
          "type": "string"
        },
        {
          "internalType": "uint256",
          "name": "_decimals",
          "type": "uint256"
        },
        {
          "internalType": "address",
          "name": "_controller",
          "type": "address"
        },
        {
          "internalType": "address",
          "name": "_underlying",
          "type": "address"
        },
        {
          "internalType": "address",
          "name": "_interestModule",
          "type": "address"
        }
      ],
      "stateMutability": "nonpayable",
      "type": "constructor"
    },
    {
      "anonymous": false,
      "inputs": [
        {
          "indexed": true,
          "internalType": "address",
          "name": "owner",
          "type": "address"
        },
        {
          "indexed": true,
          "internalType": "address",
          "name": "spender",
          "type": "address"
        },
        {
          "indexed": false,
          "internalType": "uint256",
          "name": "amount",
          "type": "uint256"
        }
      ],
      "name": "Approval",
      "type": "event"
    },
    {
      "anonymous": false,
      "inputs": [
        {
          "indexed": false,
          "internalType": "address",
          "name": "user",
          "type": "address"
        },
        {
          "indexed": false,
          "internalType": "uint256",
          "name": "amount",
          "type": "uint256"
        },
        {
          "indexed": false,
          "internalType": "address",
          "name": "vToken",
          "type": "address"
        }
      ],
      "name": "CloseLoan",
      "type": "event"
    },
    {
      "anonymous": false,
      "inputs": [
        {
          "indexed": false,
          "internalType": "address",
          "name": "user",
          "type": "address"
        },
        {
          "indexed": false,
          "internalType": "uint256",
          "name": "amount",
          "type": "uint256"
        },
        {
          "indexed": false,
          "internalType": "address",
          "name": "vToken",
          "type": "address"
        }
      ],
      "name": "Deposit",
      "type": "event"
    },
    {
      "anonymous": false,
      "inputs": [
        {
          "indexed": false,
          "internalType": "address",
          "name": "user",
          "type": "address"
        },
        {
          "indexed": false,
          "internalType": "uint256",
          "name": "amount",
          "type": "uint256"
        },
        {
          "indexed": false,
          "internalType": "address",
          "name": "vToken",
          "type": "address"
        }
      ],
      "name": "NewBorrow",
      "type": "event"
    },
    {
      "anonymous": false,
      "inputs": [
        {
          "indexed": true,
          "internalType": "address",
          "name": "from",
          "type": "address"
        },
        {
          "indexed": true,
          "internalType": "address",
          "name": "to",
          "type": "address"
        },
        {
          "indexed": false,
          "internalType": "uint256",
          "name": "amount",
          "type": "uint256"
        }
      ],
      "name": "Transfer",
      "type": "event"
    },
    {
      "anonymous": false,
      "inputs": [
        {
          "indexed": false,
          "internalType": "address",
          "name": "user",
          "type": "address"
        },
        {
          "indexed": false,
          "internalType": "uint256",
          "name": "amount",
          "type": "uint256"
        },
        {
          "indexed": false,
          "internalType": "address",
          "name": "vToken",
          "type": "address"
        }
      ],
      "name": "Withdraw",
      "type": "event"
    },
    {
      "anonymous": false,
      "inputs": [
        {
          "indexed": false,
          "internalType": "address",
          "name": "oldAdmin",
          "type": "address"
        },
        {
          "indexed": false,
          "internalType": "address",
          "name": "newAdmin",
          "type": "address"
        }
      ],
      "name": "newAdmin",
      "type": "event"
    },
    {
      "anonymous": false,
      "inputs": [
        {
          "indexed": false,
          "internalType": "contract PaladinControllerInterface",
          "name": "oldController",
          "type": "address"
        },
        {
          "indexed": false,
          "internalType": "contract PaladinControllerInterface",
          "name": "newController",
          "type": "address"
        }
      ],
      "name": "newController",
      "type": "event"
    },
    {
      "inputs": [],
      "name": "accrualBlockNumber",
      "outputs": [
        {
          "internalType": "uint256",
          "name": "",
          "type": "uint256"
        }
      ],
      "stateMutability": "view",
      "type": "function"
    },
    {
      "inputs": [
        {
          "internalType": "address",
          "name": "owner",
          "type": "address"
        },
        {
          "internalType": "address",
          "name": "spender",
          "type": "address"
        }
      ],
      "name": "allowance",
      "outputs": [
        {
          "internalType": "uint256",
          "name": "",
          "type": "uint256"
        }
      ],
      "stateMutability": "view",
      "type": "function"
    },
    {
      "inputs": [
        {
          "internalType": "address",
          "name": "spender",
          "type": "address"
        },
        {
          "internalType": "uint256",
          "name": "amount",
          "type": "uint256"
        }
      ],
      "name": "approve",
      "outputs": [
        {
          "internalType": "bool",
          "name": "",
          "type": "bool"
        }
      ],
      "stateMutability": "nonpayable",
      "type": "function"
    },
    {
      "inputs": [
        {
          "internalType": "address",
          "name": "owner",
          "type": "address"
        }
      ],
      "name": "balanceOf",
      "outputs": [
        {
          "internalType": "uint256",
          "name": "",
          "type": "uint256"
        }
      ],
      "stateMutability": "view",
      "type": "function"
    },
    {
      "inputs": [],
      "name": "borrowIndex",
      "outputs": [
        {
          "internalType": "uint256",
          "name": "",
          "type": "uint256"
        }
      ],
      "stateMutability": "view",
      "type": "function"
    },
    {
      "inputs": [],
      "name": "controller",
      "outputs": [
        {
          "internalType": "contract PaladinControllerInterface",
          "name": "",
          "type": "address"
        }
      ],
      "stateMutability": "view",
      "type": "function"
    },
    {
      "inputs": [],
      "name": "decimals",
      "outputs": [
        {
          "internalType": "uint256",
          "name": "",
          "type": "uint256"
        }
      ],
      "stateMutability": "view",
      "type": "function"
    },
    {
      "inputs": [],
      "name": "name",
      "outputs": [
        {
          "internalType": "string",
          "name": "",
          "type": "string"
        }
      ],
      "stateMutability": "view",
      "type": "function"
    },
    {
      "inputs": [],
      "name": "reserveFactor",
      "outputs": [
        {
          "internalType": "uint256",
          "name": "",
          "type": "uint256"
        }
      ],
      "stateMutability": "view",
      "type": "function"
    },
    {
      "inputs": [],
      "name": "symbol",
      "outputs": [
        {
          "internalType": "string",
          "name": "",
          "type": "string"
        }
      ],
      "stateMutability": "view",
      "type": "function"
    },
    {
      "inputs": [],
      "name": "totalBorrowed",
      "outputs": [
        {
          "internalType": "uint256",
          "name": "",
          "type": "uint256"
        }
      ],
      "stateMutability": "view",
      "type": "function"
    },
    {
      "inputs": [],
      "name": "totalReserve",
      "outputs": [
        {
          "internalType": "uint256",
          "name": "",
          "type": "uint256"
        }
      ],
      "stateMutability": "view",
      "type": "function"
    },
    {
      "inputs": [],
      "name": "totalSupply",
      "outputs": [
        {
          "internalType": "uint256",
          "name": "",
          "type": "uint256"
        }
      ],
      "stateMutability": "view",
      "type": "function"
    },
    {
      "inputs": [
        {
          "internalType": "address",
          "name": "dest",
          "type": "address"
        },
        {
          "internalType": "uint256",
          "name": "amount",
          "type": "uint256"
        }
      ],
      "name": "transfer",
      "outputs": [
        {
          "internalType": "bool",
          "name": "",
          "type": "bool"
        }
      ],
      "stateMutability": "nonpayable",
      "type": "function"
    },
    {
      "inputs": [
        {
          "internalType": "address",
          "name": "dest",
          "type": "address"
        },
        {
          "internalType": "address",
          "name": "src",
          "type": "address"
        },
        {
          "internalType": "uint256",
          "name": "amount",
          "type": "uint256"
        }
      ],
      "name": "transferFrom",
      "outputs": [
        {
          "internalType": "bool",
          "name": "",
          "type": "bool"
        }
      ],
      "stateMutability": "nonpayable",
      "type": "function"
    },
    {
      "inputs": [],
      "name": "underlying",
      "outputs": [
        {
          "internalType": "contract IERC20",
          "name": "",
          "type": "address"
        }
      ],
      "stateMutability": "view",
      "type": "function"
    },
    {
      "inputs": [],
      "name": "_underlyingBalance",
      "outputs": [
        {
          "internalType": "uint256",
          "name": "",
          "type": "uint256"
        }
      ],
      "stateMutability": "view",
      "type": "function"
    },
    {
      "inputs": [
        {
          "internalType": "uint256",
          "name": "amount",
          "type": "uint256"
        }
      ],
      "name": "deposit",
      "outputs": [
        {
          "internalType": "uint256",
          "name": "",
          "type": "uint256"
        }
      ],
      "stateMutability": "nonpayable",
      "type": "function"
    },
    {
      "inputs": [
        {
          "internalType": "uint256",
          "name": "amount",
          "type": "uint256"
        }
      ],
      "name": "withdraw",
      "outputs": [
        {
          "internalType": "uint256",
          "name": "",
          "type": "uint256"
        }
      ],
      "stateMutability": "nonpayable",
      "type": "function"
    },
    {
      "inputs": [
        {
          "internalType": "uint256",
          "name": "amount",
          "type": "uint256"
        },
        {
          "internalType": "uint256",
          "name": "feeAmount",
          "type": "uint256"
        }
      ],
      "name": "borrow",
      "outputs": [
        {
          "internalType": "uint256",
          "name": "",
          "type": "uint256"
        }
      ],
      "stateMutability": "nonpayable",
      "type": "function"
    },
    {
      "inputs": [
        {
          "internalType": "address",
          "name": "loanPool",
          "type": "address"
        },
        {
          "internalType": "uint256",
          "name": "feeAmount",
          "type": "uint256"
        }
      ],
      "name": "expandBorrow",
      "outputs": [
        {
          "internalType": "uint256",
          "name": "",
          "type": "uint256"
        }
      ],
      "stateMutability": "nonpayable",
      "type": "function"
    },
    {
      "inputs": [
        {
          "internalType": "address",
          "name": "loanPool",
          "type": "address"
        }
      ],
      "name": "killBorrow",
      "outputs": [
        {
          "internalType": "uint256",
          "name": "",
          "type": "uint256"
        }
      ],
      "stateMutability": "nonpayable",
      "type": "function"
    },
    {
      "inputs": [
        {
          "internalType": "address",
          "name": "loanPool",
          "type": "address"
        }
      ],
      "name": "closeBorrow",
      "outputs": [
        {
          "internalType": "uint256",
          "name": "",
          "type": "uint256"
        }
      ],
      "stateMutability": "nonpayable",
      "type": "function"
    },
    {
      "inputs": [],
      "name": "getLoansPools",
      "outputs": [
        {
          "internalType": "address[]",
          "name": "",
          "type": "address[]"
        }
      ],
      "stateMutability": "view",
      "type": "function"
    },
    {
      "inputs": [
        {
          "internalType": "address",
          "name": "borrower",
          "type": "address"
        }
      ],
      "name": "getLoansByBorrowerStored",
      "outputs": [
        {
          "internalType": "address[]",
          "name": "",
          "type": "address[]"
        }
      ],
      "stateMutability": "view",
      "type": "function"
    },
    {
      "inputs": [
        {
          "internalType": "address",
          "name": "borrower",
          "type": "address"
        }
      ],
      "name": "getLoansByBorrower",
      "outputs": [
        {
          "internalType": "address[]",
          "name": "",
          "type": "address[]"
        }
      ],
      "stateMutability": "nonpayable",
      "type": "function"
    },
    {
      "inputs": [
        {
          "internalType": "address",
          "name": "__loanPool",
          "type": "address"
        }
      ],
      "name": "getBorrowDataStored",
      "outputs": [
        {
          "internalType": "address",
          "name": "_borrower",
          "type": "address"
        },
        {
          "internalType": "address",
          "name": "_loanPool",
          "type": "address"
        },
        {
          "internalType": "uint256",
          "name": "_amount",
          "type": "uint256"
        },
        {
          "internalType": "address",
          "name": "_underlying",
          "type": "address"
        },
        {
          "internalType": "uint256",
          "name": "_feesAmount",
          "type": "uint256"
        },
        {
          "internalType": "uint256",
          "name": "_feesUsed",
          "type": "uint256"
        },
        {
          "internalType": "bool",
          "name": "_closed",
          "type": "bool"
        }
      ],
      "stateMutability": "view",
      "type": "function"
    },
    {
      "inputs": [
        {
          "internalType": "address",
          "name": "__loanPool",
          "type": "address"
        }
      ],
      "name": "getBorrowData",
      "outputs": [
        {
          "internalType": "address",
          "name": "_borrower",
          "type": "address"
        },
        {
          "internalType": "address",
          "name": "_loanPool",
          "type": "address"
        },
        {
          "internalType": "uint256",
          "name": "_amount",
          "type": "uint256"
        },
        {
          "internalType": "address",
          "name": "_underlying",
          "type": "address"
        },
        {
          "internalType": "uint256",
          "name": "_feesAmount",
          "type": "uint256"
        },
        {
          "internalType": "uint256",
          "name": "_feesUsed",
          "type": "uint256"
        },
        {
          "internalType": "bool",
          "name": "_closed",
          "type": "bool"
        }
      ],
      "stateMutability": "nonpayable",
      "type": "function"
    },
    {
      "inputs": [],
      "name": "borrowRatePerBlock",
      "outputs": [
        {
          "internalType": "uint256",
          "name": "",
          "type": "uint256"
        }
      ],
      "stateMutability": "view",
      "type": "function"
    },
    {
      "inputs": [],
      "name": "supplyRatePerBlock",
      "outputs": [
        {
          "internalType": "uint256",
          "name": "",
          "type": "uint256"
        }
      ],
      "stateMutability": "view",
      "type": "function"
    },
    {
      "inputs": [],
      "name": "totalBorrowsCurrent",
      "outputs": [
        {
          "internalType": "uint256",
          "name": "",
          "type": "uint256"
        }
      ],
      "stateMutability": "nonpayable",
      "type": "function"
    },
    {
      "inputs": [],
      "name": "exchangeRateCurrent",
      "outputs": [
        {
          "internalType": "uint256",
          "name": "",
          "type": "uint256"
        }
      ],
      "stateMutability": "nonpayable",
      "type": "function"
    },
    {
      "inputs": [],
      "name": "exchangeRateStored",
      "outputs": [
        {
          "internalType": "uint256",
          "name": "",
          "type": "uint256"
        }
      ],
      "stateMutability": "view",
      "type": "function"
    },
    {
      "inputs": [],
      "name": "_updateInterest",
      "outputs": [
        {
          "internalType": "bool",
          "name": "",
          "type": "bool"
        }
      ],
      "stateMutability": "nonpayable",
      "type": "function"
    },
    {
      "inputs": [
        {
          "internalType": "address payable",
          "name": "_newAdmin",
          "type": "address"
        }
      ],
      "name": "setNewAdmin",
      "outputs": [],
      "stateMutability": "nonpayable",
      "type": "function"
    },
    {
      "inputs": [
        {
          "internalType": "address",
          "name": "_newController",
          "type": "address"
        }
      ],
      "name": "setNewController",
      "outputs": [],
      "stateMutability": "nonpayable",
      "type": "function"
    },
    {
      "inputs": [
        {
          "internalType": "address",
          "name": "_interestModule",
          "type": "address"
        }
      ],
      "name": "setNewInterestModule",
      "outputs": [],
      "stateMutability": "nonpayable",
      "type": "function"
    },
    {
      "inputs": [
        {
          "internalType": "uint256",
          "name": "_amount",
          "type": "uint256"
        }
      ],
      "name": "addReserve",
      "outputs": [],
      "stateMutability": "nonpayable",
      "type": "function"
    },
    {
      "inputs": [
        {
          "internalType": "uint256",
          "name": "_amount",
          "type": "uint256"
        }
      ],
      "name": "removeReserve",
      "outputs": [],
      "stateMutability": "nonpayable",
      "type": "function"
    }
  ],
  "bytecode": "0x60806040526000600560146101000a81548160ff02191690831515021790555066470de4df820000600a556702c68af0bb140000600b553480156200004357600080fd5b506040516200644f3803806200644f833981810160405281019062000069919062000336565b33600660006101000a81548173ffffffffffffffffffffffffffffffffffffffff021916908373ffffffffffffffffffffffffffffffffffffffff1602179055508560009080519060200190620000c2929190620001e0565b508460019080519060200190620000db929190620001e0565b508360028190555082601160006101000a81548173ffffffffffffffffffffffffffffffffffffffff021916908373ffffffffffffffffffffffffffffffffffffffff16021790555081600560006101000a81548173ffffffffffffffffffffffffffffffffffffffff021916908373ffffffffffffffffffffffffffffffffffffffff16021790555043600c8190555080601260006101000a81548173ffffffffffffffffffffffffffffffffffffffff021916908373ffffffffffffffffffffffffffffffffffffffff160217905550670de0b6b3a7640000600d819055506000600981905550600060088190555060006007819055505050505050506200050f565b828054600181600116156101000203166002900490600052602060002090601f01602090048101928262000218576000855562000264565b82601f106200023357805160ff191683800117855562000264565b8280016001018555821562000264579182015b828111156200026357825182559160200191906001019062000246565b5b50905062000273919062000277565b5090565b5b808211156200029257600081600090555060010162000278565b5090565b6000620002ad620002a78462000432565b620003fe565b905082815260208101848484011115620002c657600080fd5b620002d3848285620004a3565b509392505050565b600081519050620002ec81620004db565b92915050565b600082601f8301126200030457600080fd5b81516200031684826020860162000296565b91505092915050565b6000815190506200033081620004f5565b92915050565b60008060008060008060c087890312156200035057600080fd5b600087015167ffffffffffffffff8111156200036b57600080fd5b6200037989828a01620002f2565b965050602087015167ffffffffffffffff8111156200039757600080fd5b620003a589828a01620002f2565b9550506040620003b889828a016200031f565b9450506060620003cb89828a01620002db565b9350506080620003de89828a01620002db565b92505060a0620003f189828a01620002db565b9150509295509295509295565b6000604051905081810181811067ffffffffffffffff82111715620004285762000427620004d9565b5b8060405250919050565b600067ffffffffffffffff82111562000450576200044f620004d9565b5b601f19601f8301169050602081019050919050565b6000620004728262000479565b9050919050565b600073ffffffffffffffffffffffffffffffffffffffff82169050919050565b6000819050919050565b60005b83811015620004c3578082015181840152602081019050620004a6565b83811115620004d3576000848401525b50505050565bfe5b620004e68162000465565b8114620004f257600080fd5b50565b620005008162000499565b81146200050c57600080fd5b50565b615f30806200051f6000396000f3fe608060405234801561001057600080fd5b506004361061023d5760003560e01c806371bfbd4e1161013b578063aa5af0fd116100b8578063c7f3b6b11161007c578063c7f3b6b11461072a578063dd62ed3e1461075a578063f77c47911461078a578063f8f9da28146107a8578063faaa83ce146107c65761023d565b8063aa5af0fd1461066a578063ae9d70b014610688578063b6b55f25146106a6578063bd6d894d146106d6578063c5d40b8a146106f45761023d565b80638eec99c8116100ff5780638eec99c8146105ae57806395d89b41146105ca57806397cc9670146105e8578063a764804f1461061e578063a9059cbb1461063a5761023d565b806371bfbd4e146104e2578063730c4feb14610512578063731252021461054257806373acee981461056057806386a2a4381461057e5761023d565b8063313ce567116101c9578063560acbc21161018d578063560acbc21461043e57806359baef401461045a5780636c540baf146104765780636f307dc31461049457806370a08231146104b25761023d565b8063313ce567146103aa5780634322b714146103c85780634b8243c9146103e65780634c19386c146104025780634c68df67146104205761023d565b806318160ddd1161021057806318160ddd146102f0578063182df0f51461030e57806323b872dd1461032c5780632d66da9f1461035c5780632e1a7d4d1461037a5761023d565b806306fdde0314610242578063095ea7b3146102605780630ecbcdab14610290578063130cbe5c146102c0575b600080fd5b61024a6107e4565b604051610257919061497d565b60405180910390f35b61027a60048036038101906102759190614246565b610882565b604051610287919061492c565b60405180910390f35b6102aa60048036038101906102a591906142fd565b610979565b6040516102b79190614abf565b60405180910390f35b6102da60048036038101906102d59190614246565b61098e565b6040516102e79190614abf565b60405180910390f35b6102f86109a2565b6040516103059190614abf565b60405180910390f35b6103166109a8565b6040516103239190614abf565b60405180910390f35b610346600480360381019061034191906141f7565b6109b7565b604051610353919061492c565b60405180910390f35b6103646109ce565b604051610371919061490a565b60405180910390f35b610394600480360381019061038f91906142ab565b610a5c565b6040516103a19190614abf565b60405180910390f35b6103b2610d3c565b6040516103bf9190614abf565b60405180910390f35b6103d0610d42565b6040516103dd9190614abf565b60405180910390f35b61040060048036038101906103fb91906142ab565b610d48565b005b61040a610ea5565b6040516104179190614abf565b60405180910390f35b610428610eab565b6040516104359190614abf565b60405180910390f35b610458600480360381019061045391906142ab565b610eb1565b005b610474600480360381019061046f9190614169565b61102c565b005b61047e6110ca565b60405161048b9190614abf565b60405180910390f35b61049c6110d0565b6040516104a99190614947565b60405180910390f35b6104cc60048036038101906104c79190614169565b6110f6565b6040516104d99190614abf565b60405180910390f35b6104fc60048036038101906104f79190614169565b61113f565b6040516105099190614abf565b60405180910390f35b61052c60048036038101906105279190614169565b611151565b604051610539919061490a565b60405180910390f35b61054a61121e565b604051610557919061492c565b60405180910390f35b61056861143c565b6040516105759190614abf565b60405180910390f35b61059860048036038101906105939190614169565b61149f565b6040516105a5919061490a565b60405180910390f35b6105c860048036038101906105c39190614192565b6115cd565b005b6105d261166b565b6040516105df919061497d565b60405180910390f35b61060260048036038101906105fd9190614169565b611709565b60405161061597969594939291906147e8565b60405180910390f35b61063860048036038101906106339190614169565b611736565b005b610654600480360381019061064f9190614246565b6117d4565b604051610661919061492c565b60405180910390f35b6106726117ea565b60405161067f9190614abf565b60405180910390f35b6106906117f0565b60405161069d9190614abf565b60405180910390f35b6106c060048036038101906106bb91906142ab565b6118b5565b6040516106cd9190614abf565b60405180910390f35b6106de611bf0565b6040516106eb9190614abf565b60405180910390f35b61070e60048036038101906107099190614169565b611c08565b60405161072197969594939291906147e8565b60405180910390f35b610744600480360381019061073f9190614169565b611c46565b6040516107519190614abf565b60405180910390f35b610774600480360381019061076f91906141bb565b611c59565b6040516107819190614abf565b60405180910390f35b610792611ce0565b60405161079f9190614962565b60405180910390f35b6107b0611d06565b6040516107bd9190614abf565b60405180910390f35b6107ce611dc7565b6040516107db9190614abf565b60405180910390f35b60008054600181600116156101000203166002900480601f01602080910402602001604051908101604052809291908181526020018280546001816001161561010002031660029004801561087a5780601f1061084f5761010080835404028352916020019161087a565b820191906000526020600020905b81548152906001019060200180831161085d57829003601f168201915b505050505081565b60008033905082600460008373ffffffffffffffffffffffffffffffffffffffff1673ffffffffffffffffffffffffffffffffffffffff16815260200190815260200160002060008673ffffffffffffffffffffffffffffffffffffffff1673ffffffffffffffffffffffffffffffffffffffff168152602001908152602001600020819055508373ffffffffffffffffffffffffffffffffffffffff168173ffffffffffffffffffffffffffffffffffffffff167f8c5be1e5ebec7d5bd14f71427d1e84f3dd0314c0f7b2291e5b200ac8c7c3b925856040518082815260200191505060405180910390a3600191505092915050565b6000610986338484611e79565b905092915050565b600061099a83836125c0565b905092915050565b60095481565b60006109b2612b77565b905090565b60006109c533858585612bfd565b90509392505050565b60606010805480602002602001604051908101604052809291908181526020018280548015610a5257602002820191906000526020600020905b8160009054906101000a900473ffffffffffffffffffffffffffffffffffffffff1673ffffffffffffffffffffffffffffffffffffffff1681526020019060010190808311610a08575b5050505050905090565b6000600560149054906101000a900460ff1615610a7857600080fd5b6001600560146101000a81548160ff021916908315150217905550610a9b61121e565b610aa457600080fd5b81600360003373ffffffffffffffffffffffffffffffffffffffff1673ffffffffffffffffffffffffffffffffffffffff168152602001908152602001600020541115610af057600080fd5b6000610afa612b77565b90506000610b1182856130fb90919063ffffffff16565b90506000610b30670de0b6b3a76400008361318290919063ffffffff16565b9050610b3a611dc7565b8110610b7b576040517f08c379a0000000000000000000000000000000000000000000000000000000008152600401610b72906149bf565b60405180910390fd5b610b90816009546131cc90919063ffffffff16565b600981905550610be881600360003373ffffffffffffffffffffffffffffffffffffffff1673ffffffffffffffffffffffffffffffffffffffff168152602001908152602001600020546131cc90919063ffffffff16565b600360003373ffffffffffffffffffffffffffffffffffffffff1673ffffffffffffffffffffffffffffffffffffffff16815260200190815260200160002081905550600560009054906101000a900473ffffffffffffffffffffffffffffffffffffffff1673ffffffffffffffffffffffffffffffffffffffff1663a9059cbb33836040518363ffffffff1660e01b8152600401610c889291906146e3565b602060405180830381600087803b158015610ca257600080fd5b505af1158015610cb6573d6000803e3d6000fd5b505050506040513d601f19601f82011682018060405250810190610cda9190614282565b507f56c54ba9bd38d8fd62012e42c7ee564519b09763c426d331b3661b537ead19b2338630604051610d0e9392919061470c565b60405180910390a18093505050506000600560146101000a81548160ff021916908315150217905550919050565b60025481565b600b5481565b600660009054906101000a900473ffffffffffffffffffffffffffffffffffffffff1673ffffffffffffffffffffffffffffffffffffffff163373ffffffffffffffffffffffffffffffffffffffff1614610da257600080fd5b610daa61121e565b610db357600080fd5b600560009054906101000a900473ffffffffffffffffffffffffffffffffffffffff1673ffffffffffffffffffffffffffffffffffffffff166323b872dd600660009054906101000a900473ffffffffffffffffffffffffffffffffffffffff1630846040518463ffffffff1660e01b8152600401610e34939291906146ac565b602060405180830381600087803b158015610e4e57600080fd5b505af1158015610e62573d6000803e3d6000fd5b505050506040513d601f19601f82011682018060405250810190610e869190614282565b50610e9c8160075461321690919063ffffffff16565b60078190555050565b60085481565b60075481565b600660009054906101000a900473ffffffffffffffffffffffffffffffffffffffff1673ffffffffffffffffffffffffffffffffffffffff163373ffffffffffffffffffffffffffffffffffffffff1614610f0b57600080fd5b610f1361121e565b610f1c57600080fd5b610f24611dc7565b81108015610f33575060075481105b610f3c57600080fd5b600560009054906101000a900473ffffffffffffffffffffffffffffffffffffffff1673ffffffffffffffffffffffffffffffffffffffff1663a9059cbb600660009054906101000a900473ffffffffffffffffffffffffffffffffffffffff16836040518363ffffffff1660e01b8152600401610fbb9291906146e3565b602060405180830381600087803b158015610fd557600080fd5b505af1158015610fe9573d6000803e3d6000fd5b505050506040513d601f19601f8201168201806040525081019061100d9190614282565b50611023816007546131cc90919063ffffffff16565b60078190555050565b600660009054906101000a900473ffffffffffffffffffffffffffffffffffffffff1673ffffffffffffffffffffffffffffffffffffffff163373ffffffffffffffffffffffffffffffffffffffff161461108657600080fd5b80601160006101000a81548173ffffffffffffffffffffffffffffffffffffffff021916908373ffffffffffffffffffffffffffffffffffffffff16021790555050565b600c5481565b600560009054906101000a900473ffffffffffffffffffffffffffffffffffffffff1681565b6000600360008373ffffffffffffffffffffffffffffffffffffffff1673ffffffffffffffffffffffffffffffffffffffff168152602001908152602001600020549050919050565b600061114a8261329e565b9050919050565b6060600e60008373ffffffffffffffffffffffffffffffffffffffff1673ffffffffffffffffffffffffffffffffffffffff16815260200190815260200160002080548060200260200160405190810160405280929190818152602001828054801561121257602002820191906000526020600020905b8160009054906101000a900473ffffffffffffffffffffffffffffffffffffffff1673ffffffffffffffffffffffffffffffffffffffff16815260200190600101908083116111c8575b50505050509050919050565b600080439050600c54811415611238576001915050611439565b6000611242611dc7565b905060006008549050600060075490506000600d5490506000601260009054906101000a900473ffffffffffffffffffffffffffffffffffffffff1673ffffffffffffffffffffffffffffffffffffffff166315f240538686866040518463ffffffff1660e01b81526004016112ba93929190614b03565b60206040518083038186803b1580156112d257600080fd5b505afa1580156112e6573d6000803e3d6000fd5b505050506040513d601f19601f8201168201806040525081019061130a91906142d4565b90506000611323600c54886131cc90919063ffffffff16565b9050600061133a82846130fb90919063ffffffff16565b9050600061136b670de0b6b3a764000061135d89856130fb90919063ffffffff16565b61318290919063ffffffff16565b90506000611382828961321690919063ffffffff16565b905060006113c76113b8670de0b6b3a76400006113aa86600b546130fb90919063ffffffff16565b61318290919063ffffffff16565b8961321690919063ffffffff16565b9050600061140a6113fb670de0b6b3a76400006113ed8b896130fb90919063ffffffff16565b61318290919063ffffffff16565b8961321690919063ffffffff16565b9050826008819055508160078190555080600d819055508b600c8190555060019c505050505050505050505050505b90565b6000600560149054906101000a900460ff161561145857600080fd5b6001600560146101000a81548160ff02191690831515021790555061147b61121e565b5060085490506000600560146101000a81548160ff02191690831515021790555090565b6060600560149054906101000a900460ff16156114bb57600080fd5b6001600560146101000a81548160ff0219169083151502179055506114de61121e565b6114e757600080fd5b600e60008373ffffffffffffffffffffffffffffffffffffffff1673ffffffffffffffffffffffffffffffffffffffff1681526020019081526020016000208054806020026020016040519081016040528092919081815260200182805480156115a657602002820191906000526020600020905b8160009054906101000a900473ffffffffffffffffffffffffffffffffffffffff1673ffffffffffffffffffffffffffffffffffffffff168152602001906001019080831161155c575b505050505090506000600560146101000a81548160ff021916908315150217905550919050565b600660009054906101000a900473ffffffffffffffffffffffffffffffffffffffff1673ffffffffffffffffffffffffffffffffffffffff163373ffffffffffffffffffffffffffffffffffffffff161461162757600080fd5b80600660006101000a81548173ffffffffffffffffffffffffffffffffffffffff021916908373ffffffffffffffffffffffffffffffffffffffff16021790555050565b60018054600181600116156101000203166002900480601f0160208091040260200160405190810160405280929190818152602001828054600181600116156101000203166002900480156117015780601f106116d657610100808354040283529160200191611701565b820191906000526020600020905b8154815290600101906020018083116116e457829003601f168201915b505050505081565b600080600080600080600061171d886137d3565b9650965096509650965096509650919395979092949650565b600660009054906101000a900473ffffffffffffffffffffffffffffffffffffffff1673ffffffffffffffffffffffffffffffffffffffff163373ffffffffffffffffffffffffffffffffffffffff161461179057600080fd5b80601260006101000a81548173ffffffffffffffffffffffffffffffffffffffff021916908373ffffffffffffffffffffffffffffffffffffffff16021790555050565b60006117e233843385612bfd565b905092915050565b600d5481565b6000601260009054906101000a900473ffffffffffffffffffffffffffffffffffffffff1673ffffffffffffffffffffffffffffffffffffffff1663b8168816611838611dc7565b600854600754600b546040518563ffffffff1660e01b81526004016118609493929190614b3a565b60206040518083038186803b15801561187857600080fd5b505afa15801561188c573d6000803e3d6000fd5b505050506040513d601f19601f820116820180604052508101906118b091906142d4565b905090565b6000600560149054906101000a900460ff16156118d157600080fd5b6001600560146101000a81548160ff0219169083151502179055506118f461121e565b6118fd57600080fd5b6000611907612b77565b9050600560009054906101000a900473ffffffffffffffffffffffffffffffffffffffff1673ffffffffffffffffffffffffffffffffffffffff166323b872dd3330866040518463ffffffff1660e01b8152600401611968939291906146ac565b602060405180830381600087803b15801561198257600080fd5b505af1158015611996573d6000803e3d6000fd5b505050506040513d601f19601f820116820180604052508101906119ba9190614282565b5060006119d8670de0b6b3a7640000856130fb90919063ffffffff16565b905060006119ef838361318290919063ffffffff16565b9050611a068160095461321690919063ffffffff16565b600981905550611a5e81600360003373ffffffffffffffffffffffffffffffffffffffff1673ffffffffffffffffffffffffffffffffffffffff1681526020019081526020016000205461321690919063ffffffff16565b600360003373ffffffffffffffffffffffffffffffffffffffff1673ffffffffffffffffffffffffffffffffffffffff168152602001908152602001600020819055507fe31c7b8d08ee7db0afa68782e1028ef92305caeea8626633ad44d413e30f6b2f338630604051611ad49392919061470c565b60405180910390a1601160009054906101000a900473ffffffffffffffffffffffffffffffffffffffff1673ffffffffffffffffffffffffffffffffffffffff1663806f8ab23033846040518463ffffffff1660e01b8152600401611b3b93929190614743565b60206040518083038186803b158015611b5357600080fd5b505afa158015611b67573d6000803e3d6000fd5b505050506040513d601f19601f82011682018060405250810190611b8b9190614282565b611bca576040517f08c379a0000000000000000000000000000000000000000000000000000000008152600401611bc1906149df565b60405180910390fd5b8093505050506000600560146101000a81548160ff021916908315150217905550919050565b6000611bfa61121e565b50611c03612b77565b905090565b6000806000806000806000611c1b61121e565b611c2457600080fd5b611c2d886137d3565b9650965096509650965096509650919395979092949650565b6000611c5233836139e3565b9050919050565b6000600460008473ffffffffffffffffffffffffffffffffffffffff1673ffffffffffffffffffffffffffffffffffffffff16815260200190815260200160002060008373ffffffffffffffffffffffffffffffffffffffff1673ffffffffffffffffffffffffffffffffffffffff16815260200190815260200160002054905092915050565b601160009054906101000a900473ffffffffffffffffffffffffffffffffffffffff1681565b6000601260009054906101000a900473ffffffffffffffffffffffffffffffffffffffff1673ffffffffffffffffffffffffffffffffffffffff166315f24053611d4e611dc7565b6008546007546040518463ffffffff1660e01b8152600401611d7293929190614b03565b60206040518083038186803b158015611d8a57600080fd5b505afa158015611d9e573d6000803e3d6000fd5b505050506040513d601f19601f82011682018060405250810190611dc291906142d4565b905090565b6000600560009054906101000a900473ffffffffffffffffffffffffffffffffffffffff1673ffffffffffffffffffffffffffffffffffffffff166370a08231306040518263ffffffff1660e01b8152600401611e249190614691565b60206040518083038186803b158015611e3c57600080fd5b505afa158015611e50573d6000803e3d6000fd5b505050506040513d601f19601f82011682018060405250810190611e7491906142d4565b905090565b6000600560149054906101000a900460ff1615611e9557600080fd5b6001600560146101000a81548160ff021916908315150217905550611eb8611dc7565b8310611ef9576040517f08c379a0000000000000000000000000000000000000000000000000000000008152600401611ef090614a1f565b60405180910390fd5b611f0161121e565b611f0a57600080fd5b60006040518060e001604052808673ffffffffffffffffffffffffffffffffffffffff1681526020013073ffffffffffffffffffffffffffffffffffffffff168152602001858152602001600560009054906101000a900473ffffffffffffffffffffffffffffffffffffffff1673ffffffffffffffffffffffffffffffffffffffff168152602001848152602001600d54815260200160001515815250905060003086600560009054906101000a900473ffffffffffffffffffffffffffffffffffffffff16604051611fdd906140f2565b611fe99392919061477a565b604051809103906000f080158015612005573d6000803e3d6000fd5b509050600560009054906101000a900473ffffffffffffffffffffffffffffffffffffffff1673ffffffffffffffffffffffffffffffffffffffff1663a9059cbb82876040518363ffffffff1660e01b81526004016120659291906148aa565b602060405180830381600087803b15801561207f57600080fd5b505af1158015612093573d6000803e3d6000fd5b505050506040513d601f19601f820116820180604052508101906120b79190614282565b50600560009054906101000a900473ffffffffffffffffffffffffffffffffffffffff1673ffffffffffffffffffffffffffffffffffffffff166323b872dd8783876040518463ffffffff1660e01b8152600401612117939291906147b1565b602060405180830381600087803b15801561213157600080fd5b505af1158015612145573d6000803e3d6000fd5b505050506040513d601f19601f820116820180604052508101906121699190614282565b508073ffffffffffffffffffffffffffffffffffffffff1663a52b311386866040518363ffffffff1660e01b81526004016121a5929190614ada565b602060405180830381600087803b1580156121bf57600080fd5b505af11580156121d3573d6000803e3d6000fd5b505050506040513d601f19601f820116820180604052508101906121f79190614282565b5061220d8560085461321690919063ffffffff16565b6008819055506010819080600181540180825580915050600190039060005260206000200160009091909190916101000a81548173ffffffffffffffffffffffffffffffffffffffff021916908373ffffffffffffffffffffffffffffffffffffffff16021790555081600f60008373ffffffffffffffffffffffffffffffffffffffff1673ffffffffffffffffffffffffffffffffffffffff16815260200190815260200160002060008201518160000160006101000a81548173ffffffffffffffffffffffffffffffffffffffff021916908373ffffffffffffffffffffffffffffffffffffffff16021790555060208201518160010160006101000a81548173ffffffffffffffffffffffffffffffffffffffff021916908373ffffffffffffffffffffffffffffffffffffffff1602179055506040820151816002015560608201518160030160006101000a81548173ffffffffffffffffffffffffffffffffffffffff021916908373ffffffffffffffffffffffffffffffffffffffff1602179055506080820151816004015560a0820151816005015560c08201518160060160006101000a81548160ff021916908315150217905550905050600e60008773ffffffffffffffffffffffffffffffffffffffff1673ffffffffffffffffffffffffffffffffffffffff168152602001908152602001600020819080600181540180825580915050600190039060005260206000200160009091909190916101000a81548173ffffffffffffffffffffffffffffffffffffffff021916908373ffffffffffffffffffffffffffffffffffffffff160217905550601160009054906101000a900473ffffffffffffffffffffffffffffffffffffffff1673ffffffffffffffffffffffffffffffffffffffff166399bf049a30888888866040518663ffffffff1660e01b81526004016124cf959493929190614857565b60206040518083038186803b1580156124e757600080fd5b505afa1580156124fb573d6000803e3d6000fd5b505050506040513d601f19601f8201168201806040525081019061251f9190614282565b61255e576040517f08c379a000000000000000000000000000000000000000000000000000000000815260040161255590614a9f565b60405180910390fd5b7f0105f0d6cb5f41090fe3022c4c6e656e141f8f2b47880dba22bcdc4e443c49d9868630604051612591939291906148d3565b60405180910390a184925050506000600560146101000a81548160ff0219169083151502179055509392505050565b6000600560149054906101000a900460ff16156125dc57600080fd5b6001600560146101000a81548160ff0219169083151502179055506000600f60008573ffffffffffffffffffffffffffffffffffffffff1673ffffffffffffffffffffffffffffffffffffffff1681526020019081526020016000206040518060e00160405290816000820160009054906101000a900473ffffffffffffffffffffffffffffffffffffffff1673ffffffffffffffffffffffffffffffffffffffff1673ffffffffffffffffffffffffffffffffffffffff1681526020016001820160009054906101000a900473ffffffffffffffffffffffffffffffffffffffff1673ffffffffffffffffffffffffffffffffffffffff1673ffffffffffffffffffffffffffffffffffffffff168152602001600282015481526020016003820160009054906101000a900473ffffffffffffffffffffffffffffffffffffffff1673ffffffffffffffffffffffffffffffffffffffff1673ffffffffffffffffffffffffffffffffffffffff16815260200160048201548152602001600582015481526020016006820160009054906101000a900460ff16151515158152505090508060c00151156127c5576040517f08c379a00000000000000000000000000000000000000000000000000000000081526004016127bc9061499f565b60405180910390fd5b3373ffffffffffffffffffffffffffffffffffffffff16816000015173ffffffffffffffffffffffffffffffffffffffff1614612837576040517f08c379a000000000000000000000000000000000000000000000000000000000815260040161282e90614a7f565b60405180910390fd5b61283f61121e565b61284857600080fd5b600081602001519050600560009054906101000a900473ffffffffffffffffffffffffffffffffffffffff1673ffffffffffffffffffffffffffffffffffffffff166323b872dd83600001518460200151876040518463ffffffff1660e01b81526004016128b8939291906147b1565b602060405180830381600087803b1580156128d257600080fd5b505af11580156128e6573d6000803e3d6000fd5b505050506040513d601f19601f8201168201806040525081019061290a9190614282565b5060008173ffffffffffffffffffffffffffffffffffffffff1663682904a5866040518263ffffffff1660e01b81526004016129469190614abf565b602060405180830381600087803b15801561296057600080fd5b505af1158015612974573d6000803e3d6000fd5b505050506040513d601f19601f820116820180604052508101906129989190614282565b9050806129da576040517f08c379a00000000000000000000000000000000000000000000000000000000081526004016129d1906149ff565b60405180910390fd5b6129f185846080015161321690919063ffffffff16565b83608001818152505082600f60008873ffffffffffffffffffffffffffffffffffffffff1673ffffffffffffffffffffffffffffffffffffffff16815260200190815260200160002060008201518160000160006101000a81548173ffffffffffffffffffffffffffffffffffffffff021916908373ffffffffffffffffffffffffffffffffffffffff16021790555060208201518160010160006101000a81548173ffffffffffffffffffffffffffffffffffffffff021916908373ffffffffffffffffffffffffffffffffffffffff1602179055506040820151816002015560608201518160030160006101000a81548173ffffffffffffffffffffffffffffffffffffffff021916908373ffffffffffffffffffffffffffffffffffffffff1602179055506080820151816004015560a0820151816005015560c08201518160060160006101000a81548160ff0219169083151502179055509050508493505050506000600560146101000a81548160ff02191690831515021790555092915050565b6000806009541415612b8d57600a549050612bfa565b6000612b97611dc7565b90506000612bc4600754612bb66008548561321690919063ffffffff16565b6131cc90919063ffffffff16565b9050612bf5600954612be7670de0b6b3a7640000846130fb90919063ffffffff16565b61318290919063ffffffff16565b925050505b90565b600081600360008573ffffffffffffffffffffffffffffffffffffffff1673ffffffffffffffffffffffffffffffffffffffff168152602001908152602001600020541115612cb4576040517f08c379a00000000000000000000000000000000000000000000000000000000081526004018080602001828103825260078152602001807f42616c616e63650000000000000000000000000000000000000000000000000081525060200191505060405180910390fd5b8273ffffffffffffffffffffffffffffffffffffffff168473ffffffffffffffffffffffffffffffffffffffff161415612d56576040517f08c379a000000000000000000000000000000000000000000000000000000000815260040180806020018281038252600d8152602001807f53656c662d7472616e736665720000000000000000000000000000000000000081525060200191505060405180910390fd5b60007fffffffffffffffffffffffffffffffffffffffffffffffffffffffffffffffff90508573ffffffffffffffffffffffffffffffffffffffff168473ffffffffffffffffffffffffffffffffffffffff1614612e2e57600460008573ffffffffffffffffffffffffffffffffffffffff1673ffffffffffffffffffffffffffffffffffffffff16815260200190815260200160002060008773ffffffffffffffffffffffffffffffffffffffff1673ffffffffffffffffffffffffffffffffffffffff1681526020019081526020016000205490505b82811015612ea4576040517f08c379a00000000000000000000000000000000000000000000000000000000081526004018080602001828103825260098152602001807f416c6c6f77616e6365000000000000000000000000000000000000000000000081525060200191505060405180910390fd5b612ef683600360008773ffffffffffffffffffffffffffffffffffffffff1673ffffffffffffffffffffffffffffffffffffffff168152602001908152602001600020546131cc90919063ffffffff16565b600360008673ffffffffffffffffffffffffffffffffffffffff1673ffffffffffffffffffffffffffffffffffffffff16815260200190815260200160002081905550612f8b83600360008873ffffffffffffffffffffffffffffffffffffffff1673ffffffffffffffffffffffffffffffffffffffff1681526020019081526020016000205461321690919063ffffffff16565b600360008773ffffffffffffffffffffffffffffffffffffffff1673ffffffffffffffffffffffffffffffffffffffff168152602001908152602001600020819055507fffffffffffffffffffffffffffffffffffffffffffffffffffffffffffffffff81146130895761300883826131cc90919063ffffffff16565b600460008673ffffffffffffffffffffffffffffffffffffffff1673ffffffffffffffffffffffffffffffffffffffff16815260200190815260200160002060008873ffffffffffffffffffffffffffffffffffffffff1673ffffffffffffffffffffffffffffffffffffffff168152602001908152602001600020819055505b8473ffffffffffffffffffffffffffffffffffffffff168473ffffffffffffffffffffffffffffffffffffffff167fddf252ad1be2c89b69c2b068fc378daa952ba7f163c4a11628f55a4df523b3ef856040518082815260200191505060405180910390a36001915050949350505050565b60008083141561310e576000905061317c565b600082840290508284828161311f57fe5b0414613177576040517f08c379a000000000000000000000000000000000000000000000000000000000815260040180806020018281038252602181526020018062005eda6021913960400191505060405180910390fd5b809150505b92915050565b60006131c483836040518060400160405280601a81526020017f536166654d6174683a206469766973696f6e206279207a65726f000000000000815250613f6c565b905092915050565b600061320e83836040518060400160405280601f81526020017f536166654d6174683a207375627472616374696f6e20756e646572666c6f7700815250614032565b905092915050565b600080828401905083811015613294576040517f08c379a000000000000000000000000000000000000000000000000000000000815260040180806020018281038252601b8152602001807f536166654d6174683a206164646974696f6e206f766572666c6f77000000000081525060200191505060405180910390fd5b8091505092915050565b6000600560149054906101000a900460ff16156132ba57600080fd5b6001600560146101000a81548160ff0219169083151502179055506000600f60008473ffffffffffffffffffffffffffffffffffffffff1673ffffffffffffffffffffffffffffffffffffffff1681526020019081526020016000206040518060e00160405290816000820160009054906101000a900473ffffffffffffffffffffffffffffffffffffffff1673ffffffffffffffffffffffffffffffffffffffff1673ffffffffffffffffffffffffffffffffffffffff1681526020016001820160009054906101000a900473ffffffffffffffffffffffffffffffffffffffff1673ffffffffffffffffffffffffffffffffffffffff1673ffffffffffffffffffffffffffffffffffffffff168152602001600282015481526020016003820160009054906101000a900473ffffffffffffffffffffffffffffffffffffffff1673ffffffffffffffffffffffffffffffffffffffff1673ffffffffffffffffffffffffffffffffffffffff16815260200160048201548152602001600582015481526020016006820160009054906101000a900460ff16151515158152505090508060c00151156134a3576040517f08c379a000000000000000000000000000000000000000000000000000000000815260040161349a9061499f565b60405180910390fd5b3373ffffffffffffffffffffffffffffffffffffffff16816000015173ffffffffffffffffffffffffffffffffffffffff1614613515576040517f08c379a000000000000000000000000000000000000000000000000000000000815260040161350c90614a7f565b60405180910390fd5b61351d61121e565b61352657600080fd5b6000816020015190506000613576613563600d546135558660a0015187604001516130fb90919063ffffffff16565b61318290919063ffffffff16565b84604001516131cc90919063ffffffff16565b90508173ffffffffffffffffffffffffffffffffffffffff1663d05951a0826040518263ffffffff1660e01b81526004016135b19190614abf565b600060405180830381600087803b1580156135cb57600080fd5b505af11580156135df573d6000803e3d6000fd5b5050505060018360c001901515908115158152505061360d83604001516008546131cc90919063ffffffff16565b60088190555082600f60008773ffffffffffffffffffffffffffffffffffffffff1673ffffffffffffffffffffffffffffffffffffffff16815260200190815260200160002060008201518160000160006101000a81548173ffffffffffffffffffffffffffffffffffffffff021916908373ffffffffffffffffffffffffffffffffffffffff16021790555060208201518160010160006101000a81548173ffffffffffffffffffffffffffffffffffffffff021916908373ffffffffffffffffffffffffffffffffffffffff1602179055506040820151816002015560608201518160030160006101000a81548173ffffffffffffffffffffffffffffffffffffffff021916908373ffffffffffffffffffffffffffffffffffffffff1602179055506080820151816004015560a0820151816005015560c08201518160060160006101000a81548160ff0219169083151502179055509050507f8465fcba7444b0e89276702b1c2e1564b1130dcbe8d178b3105bb1bd072811ec83600001518460400151306040516137a4939291906148d3565b60405180910390a1600093505050506000600560146101000a81548160ff021916908315150217905550919050565b600080600080600080600080600f60008a73ffffffffffffffffffffffffffffffffffffffff1673ffffffffffffffffffffffffffffffffffffffff1681526020019081526020016000206040518060e00160405290816000820160009054906101000a900473ffffffffffffffffffffffffffffffffffffffff1673ffffffffffffffffffffffffffffffffffffffff1673ffffffffffffffffffffffffffffffffffffffff1681526020016001820160009054906101000a900473ffffffffffffffffffffffffffffffffffffffff1673ffffffffffffffffffffffffffffffffffffffff1673ffffffffffffffffffffffffffffffffffffffff168152602001600282015481526020016003820160009054906101000a900473ffffffffffffffffffffffffffffffffffffffff1673ffffffffffffffffffffffffffffffffffffffff1673ffffffffffffffffffffffffffffffffffffffff16815260200160048201548152602001600582015481526020016006820160009054906101000a900460ff1615151515815250509050806000015181602001518260400151836060015184608001516139c46139b1600d546139a38960a001518a604001516130fb90919063ffffffff16565b61318290919063ffffffff16565b87604001516131cc90919063ffffffff16565b8660c00151975097509750975097509750975050919395979092949650565b6000600560149054906101000a900460ff16156139ff57600080fd5b6001600560146101000a81548160ff0219169083151502179055506000600f60008473ffffffffffffffffffffffffffffffffffffffff1673ffffffffffffffffffffffffffffffffffffffff1681526020019081526020016000206040518060e00160405290816000820160009054906101000a900473ffffffffffffffffffffffffffffffffffffffff1673ffffffffffffffffffffffffffffffffffffffff1673ffffffffffffffffffffffffffffffffffffffff1681526020016001820160009054906101000a900473ffffffffffffffffffffffffffffffffffffffff1673ffffffffffffffffffffffffffffffffffffffff1673ffffffffffffffffffffffffffffffffffffffff168152602001600282015481526020016003820160009054906101000a900473ffffffffffffffffffffffffffffffffffffffff1673ffffffffffffffffffffffffffffffffffffffff1673ffffffffffffffffffffffffffffffffffffffff16815260200160048201548152602001600582015481526020016006820160009054906101000a900460ff16151515158152505090508060c0015115613be8576040517f08c379a0000000000000000000000000000000000000000000000000000000008152600401613bdf9061499f565b60405180910390fd5b8373ffffffffffffffffffffffffffffffffffffffff16816000015173ffffffffffffffffffffffffffffffffffffffff161415613c5b576040517f08c379a0000000000000000000000000000000000000000000000000000000008152600401613c5290614a5f565b60405180910390fd5b613c6361121e565b613c6c57600080fd5b6000613cb3613ca0600d54613c928560a0015186604001516130fb90919063ffffffff16565b61318290919063ffffffff16565b83604001516131cc90919063ffffffff16565b90506000613ce88360800151613cda670de0b6b3a7640000856130fb90919063ffffffff16565b61318290919063ffffffff16565b670de0b6b3a7640000039050670214e8348c4f0000811115613d3f576040517f08c379a0000000000000000000000000000000000000000000000000000000008152600401613d3690614a3f565b60405180910390fd5b6000836020015190508073ffffffffffffffffffffffffffffffffffffffff1663f8cfe49d88670d99a8cec7e200006040518363ffffffff1660e01b8152600401613d8b9291906148aa565b600060405180830381600087803b158015613da557600080fd5b505af1158015613db9573d6000803e3d6000fd5b5050505060018460c0019015159081151581525050613de784604001516008546131cc90919063ffffffff16565b60088190555083600f60008873ffffffffffffffffffffffffffffffffffffffff1673ffffffffffffffffffffffffffffffffffffffff16815260200190815260200160002060008201518160000160006101000a81548173ffffffffffffffffffffffffffffffffffffffff021916908373ffffffffffffffffffffffffffffffffffffffff16021790555060208201518160010160006101000a81548173ffffffffffffffffffffffffffffffffffffffff021916908373ffffffffffffffffffffffffffffffffffffffff1602179055506040820151816002015560608201518160030160006101000a81548173ffffffffffffffffffffffffffffffffffffffff021916908373ffffffffffffffffffffffffffffffffffffffff1602179055506080820151816004015560a0820151816005015560c08201518160060160006101000a81548160ff02191690831515021790555090505060009450505050506000600560146101000a81548160ff02191690831515021790555092915050565b60008083118290614018576040517f08c379a00000000000000000000000000000000000000000000000000000000081526004018080602001828103825283818151815260200191508051906020019080838360005b83811015613fdd578082015181840152602081019050613fc2565b50505050905090810190601f16801561400a5780820380516001836020036101000a031916815260200191505b509250505060405180910390fd5b50600083858161402457fe5b049050809150509392505050565b60008383111582906140df576040517f08c379a00000000000000000000000000000000000000000000000000000000081526004018080602001828103825283818151815260200191508051906020019080838360005b838110156140a4578082015181840152602081019050614089565b50505050905090810190601f1680156140d15780820380516001836020036101000a031916815260200191505b509250505060405180910390fd5b5060008385039050809150509392505050565b61118d8062004d4d83390190565b60008135905061410f81614cf0565b92915050565b60008135905061412481614d07565b92915050565b60008151905061413981614d1e565b92915050565b60008135905061414e81614d35565b92915050565b60008151905061416381614d35565b92915050565b60006020828403121561417b57600080fd5b600061418984828501614100565b91505092915050565b6000602082840312156141a457600080fd5b60006141b284828501614115565b91505092915050565b600080604083850312156141ce57600080fd5b60006141dc85828601614100565b92505060206141ed85828601614100565b9150509250929050565b60008060006060848603121561420c57600080fd5b600061421a86828701614100565b935050602061422b86828701614100565b925050604061423c8682870161413f565b9150509250925092565b6000806040838503121561425957600080fd5b600061426785828601614100565b92505060206142788582860161413f565b9150509250929050565b60006020828403121561429457600080fd5b60006142a28482850161412a565b91505092915050565b6000602082840312156142bd57600080fd5b60006142cb8482850161413f565b91505092915050565b6000602082840312156142e657600080fd5b60006142f484828501614154565b91505092915050565b6000806040838503121561431057600080fd5b600061431e8582860161413f565b925050602061432f8582860161413f565b9150509250929050565b60006143458383614360565b60208301905092915050565b61435a81614c2e565b82525050565b61436981614bd4565b82525050565b61437881614bd4565b82525050565b600061438982614b8f565b6143938185614bb2565b935061439e83614b7f565b8060005b838110156143cf5781516143b68882614339565b97506143c183614ba5565b9250506001810190506143a2565b5085935050505092915050565b6143e581614bf8565b82525050565b6143f481614c40565b82525050565b61440381614c64565b82525050565b600061441482614b9a565b61441e8185614bc3565b935061442e818560208601614cac565b61443781614cdf565b840191505092915050565b600061444f600b83614bc3565b91507f4c6f616e20636c6f7365640000000000000000000000000000000000000000006000830152602082019050919050565b600061448f600f83614bc3565b91507f42616c616e636520746f6f206c6f7700000000000000000000000000000000006000830152602082019050919050565b60006144cf600e83614bc3565b91507f4465706f736974206661696c65640000000000000000000000000000000000006000830152602082019050919050565b600061450f600f83614bc3565b91507f5472616e73666572206661696c656400000000000000000000000000000000006000830152602082019050919050565b600061454f600c83614bc3565b91507f506f6f6c20746f6f206c6f7700000000000000000000000000000000000000006000830152602082019050919050565b600061458f600c83614bc3565b91507f4e6f74206b696c6c61626c6500000000000000000000000000000000000000006000830152602082019050919050565b60006145cf600a83614bc3565b91507f4c6f616e206f776e6572000000000000000000000000000000000000000000006000830152602082019050919050565b600061460f600983614bc3565b91507f4e6f74206f776e657200000000000000000000000000000000000000000000006000830152602082019050919050565b600061464f600d83614bc3565b91507f426f72726f77206661696c6564000000000000000000000000000000000000006000830152602082019050919050565b61468b81614c24565b82525050565b60006020820190506146a6600083018461436f565b92915050565b60006060820190506146c16000830186614351565b6146ce602083018561436f565b6146db6040830184614682565b949350505050565b60006040820190506146f86000830185614351565b6147056020830184614682565b9392505050565b60006060820190506147216000830186614351565b61472e6020830185614682565b61473b604083018461436f565b949350505050565b6000606082019050614758600083018661436f565b6147656020830185614351565b6147726040830184614682565b949350505050565b600060608201905061478f600083018661436f565b61479c602083018561436f565b6147a9604083018461436f565b949350505050565b60006060820190506147c6600083018661436f565b6147d3602083018561436f565b6147e06040830184614682565b949350505050565b600060e0820190506147fd600083018a61436f565b61480a602083018961436f565b6148176040830188614682565b614824606083018761436f565b6148316080830186614682565b61483e60a0830185614682565b61484b60c08301846143dc565b98975050505050505050565b600060a08201905061486c600083018861436f565b614879602083018761436f565b6148866040830186614682565b6148936060830185614682565b6148a0608083018461436f565b9695505050505050565b60006040820190506148bf600083018561436f565b6148cc6020830184614682565b9392505050565b60006060820190506148e8600083018661436f565b6148f56020830185614682565b614902604083018461436f565b949350505050565b60006020820190508181036000830152614924818461437e565b905092915050565b600060208201905061494160008301846143dc565b92915050565b600060208201905061495c60008301846143eb565b92915050565b600060208201905061497760008301846143fa565b92915050565b600060208201905081810360008301526149978184614409565b905092915050565b600060208201905081810360008301526149b881614442565b9050919050565b600060208201905081810360008301526149d881614482565b9050919050565b600060208201905081810360008301526149f8816144c2565b9050919050565b60006020820190508181036000830152614a1881614502565b9050919050565b60006020820190508181036000830152614a3881614542565b9050919050565b60006020820190508181036000830152614a5881614582565b9050919050565b60006020820190508181036000830152614a78816145c2565b9050919050565b60006020820190508181036000830152614a9881614602565b9050919050565b60006020820190508181036000830152614ab881614642565b9050919050565b6000602082019050614ad46000830184614682565b92915050565b6000604082019050614aef6000830185614682565b614afc6020830184614682565b9392505050565b6000606082019050614b186000830186614682565b614b256020830185614682565b614b326040830184614682565b949350505050565b6000608082019050614b4f6000830187614682565b614b5c6020830186614682565b614b696040830185614682565b614b766060830184614682565b95945050505050565b6000819050602082019050919050565b600081519050919050565b600081519050919050565b6000602082019050919050565b600082825260208201905092915050565b600082825260208201905092915050565b6000614bdf82614c04565b9050919050565b6000614bf182614c04565b9050919050565b60008115159050919050565b600073ffffffffffffffffffffffffffffffffffffffff82169050919050565b6000819050919050565b6000614c3982614c88565b9050919050565b6000614c4b82614c52565b9050919050565b6000614c5d82614c04565b9050919050565b6000614c6f82614c76565b9050919050565b6000614c8182614c04565b9050919050565b6000614c9382614c9a565b9050919050565b6000614ca582614c04565b9050919050565b60005b83811015614cca578082015181840152602081019050614caf565b83811115614cd9576000848401525b50505050565b6000601f19601f8301169050919050565b614cf981614bd4565b8114614d0457600080fd5b50565b614d1081614be6565b8114614d1b57600080fd5b50565b614d2781614bf8565b8114614d3257600080fd5b50565b614d3e81614c24565b8114614d4957600080fd5b5056fe608060405234801561001057600080fd5b5060405161118d38038061118d8339818101604052606081101561003357600080fd5b8101908080519060200190929190805190602001909291908051906020019092919050505082600360006101000a81548173ffffffffffffffffffffffffffffffffffffffff021916908373ffffffffffffffffffffffffffffffffffffffff16021790555081600260006101000a81548173ffffffffffffffffffffffffffffffffffffffff021916908373ffffffffffffffffffffffffffffffffffffffff160217905550806000806101000a81548173ffffffffffffffffffffffffffffffffffffffff021916908373ffffffffffffffffffffffffffffffffffffffff1602179055505050506110618061012c6000396000f3fe608060405234801561001057600080fd5b50600436106100935760003560e01c8063a52b311311610066578063a52b311314610162578063aa8c217c146101b0578063be835507146101ce578063d05951a014610202578063f8cfe49d1461023057610093565b8063651f5d1814610098578063682904a5146100b65780636f307dc3146100fa5780637df1f1b91461012e575b600080fd5b6100a061027e565b6040518082815260200191505060405180910390f35b6100e2600480360360208110156100cc57600080fd5b8101908080359060200190929190505050610284565b60405180821515815260200191505060405180910390f35b61010261033e565b604051808273ffffffffffffffffffffffffffffffffffffffff16815260200191505060405180910390f35b610136610362565b604051808273ffffffffffffffffffffffffffffffffffffffff16815260200191505060405180910390f35b6101986004803603604081101561017857600080fd5b810190808035906020019092919080359060200190929190505050610388565b60405180821515815260200191505060405180910390f35b6101b8610444565b6040518082815260200191505060405180910390f35b6101d661044a565b604051808273ffffffffffffffffffffffffffffffffffffffff16815260200191505060405180910390f35b61022e6004803603602081101561021857600080fd5b8101908080359060200190929190505050610470565b005b61027c6004803603604081101561024657600080fd5b81019080803573ffffffffffffffffffffffffffffffffffffffff16906020019092919080359060200190929190505050610522565b005b60045481565b6000600360009054906101000a900473ffffffffffffffffffffffffffffffffffffffff1673ffffffffffffffffffffffffffffffffffffffff163373ffffffffffffffffffffffffffffffffffffffff161461032c576040517f08c379a000000000000000000000000000000000000000000000000000000000815260040180806020018281038252602b815260200180610fe0602b913960400191505060405180910390fd5b610335826105d6565b60019050919050565b60008054906101000a900473ffffffffffffffffffffffffffffffffffffffff1681565b600260009054906101000a900473ffffffffffffffffffffffffffffffffffffffff1681565b6000600360009054906101000a900473ffffffffffffffffffffffffffffffffffffffff1673ffffffffffffffffffffffffffffffffffffffff163373ffffffffffffffffffffffffffffffffffffffff1614610430576040517f08c379a000000000000000000000000000000000000000000000000000000000815260040180806020018281038252602b815260200180610fe0602b913960400191505060405180910390fd5b61043a83836106a9565b6001905092915050565b60015481565b600360009054906101000a900473ffffffffffffffffffffffffffffffffffffffff1681565b600360009054906101000a900473ffffffffffffffffffffffffffffffffffffffff1673ffffffffffffffffffffffffffffffffffffffff163373ffffffffffffffffffffffffffffffffffffffff1614610516576040517f08c379a000000000000000000000000000000000000000000000000000000000815260040180806020018281038252602b815260200180610fe0602b913960400191505060405180910390fd5b61051f81610844565b50565b600360009054906101000a900473ffffffffffffffffffffffffffffffffffffffff1673ffffffffffffffffffffffffffffffffffffffff163373ffffffffffffffffffffffffffffffffffffffff16146105c8576040517f08c379a000000000000000000000000000000000000000000000000000000000815260040180806020018281038252602b815260200180610fe0602b913960400191505060405180910390fd5b6105d28282610a75565b5050565b6105eb81600454610cb790919063ffffffff16565b6004819055507fe9a9adb0b2e61bedad86826bb982a5755754c117cb4101211e424cb271e4b03e600260009054906101000a900473ffffffffffffffffffffffffffffffffffffffff1660008054906101000a900473ffffffffffffffffffffffffffffffffffffffff1683604051808473ffffffffffffffffffffffffffffffffffffffff1681526020018373ffffffffffffffffffffffffffffffffffffffff168152602001828152602001935050505060405180910390a150565b816001819055508060048190555060008060009054906101000a900473ffffffffffffffffffffffffffffffffffffffff1690508073ffffffffffffffffffffffffffffffffffffffff16635c19a95c600260009054906101000a900473ffffffffffffffffffffffffffffffffffffffff166040518263ffffffff1660e01b8152600401808273ffffffffffffffffffffffffffffffffffffffff168152602001915050600060405180830381600087803b15801561076857600080fd5b505af115801561077c573d6000803e3d6000fd5b505050507f6fd996ae51e5db06926901397ed16c7df9a78f9a738d29d3fc9e1d2adf1e7c9c600260009054906101000a900473ffffffffffffffffffffffffffffffffffffffff1660008054906101000a900473ffffffffffffffffffffffffffffffffffffffff1660015443604051808573ffffffffffffffffffffffffffffffffffffffff1681526020018473ffffffffffffffffffffffffffffffffffffffff16815260200183815260200182815260200194505050505060405180910390a1505050565b60008060009054906101000a900473ffffffffffffffffffffffffffffffffffffffff169050600061088183600454610d3f90919063ffffffff16565b9050600061089a84600154610cb790919063ffffffff16565b90508273ffffffffffffffffffffffffffffffffffffffff1663a9059cbb600260009054906101000a900473ffffffffffffffffffffffffffffffffffffffff16846040518363ffffffff1660e01b8152600401808373ffffffffffffffffffffffffffffffffffffffff16815260200182815260200192505050602060405180830381600087803b15801561092f57600080fd5b505af1158015610943573d6000803e3d6000fd5b505050506040513d602081101561095957600080fd5b8101908080519060200190929190505050508273ffffffffffffffffffffffffffffffffffffffff1663a9059cbb600360009054906101000a900473ffffffffffffffffffffffffffffffffffffffff16836040518363ffffffff1660e01b8152600401808373ffffffffffffffffffffffffffffffffffffffff16815260200182815260200192505050602060405180830381600087803b1580156109fe57600080fd5b505af1158015610a12573d6000803e3d6000fd5b505050506040513d6020811015610a2857600080fd5b810190808051906020019092919050505050600360009054906101000a900473ffffffffffffffffffffffffffffffffffffffff1673ffffffffffffffffffffffffffffffffffffffff16ff5b60008060009054906101000a900473ffffffffffffffffffffffffffffffffffffffff1690506000610acc670de0b6b3a7640000610abe85600454610d8990919063ffffffff16565b610e0f90919063ffffffff16565b90506000610ae7600454600154610cb790919063ffffffff16565b90506000610afe8383610d3f90919063ffffffff16565b90508373ffffffffffffffffffffffffffffffffffffffff1663a9059cbb87856040518363ffffffff1660e01b8152600401808373ffffffffffffffffffffffffffffffffffffffff16815260200182815260200192505050602060405180830381600087803b158015610b7157600080fd5b505af1158015610b85573d6000803e3d6000fd5b505050506040513d6020811015610b9b57600080fd5b8101908080519060200190929190505050508373ffffffffffffffffffffffffffffffffffffffff1663a9059cbb600360009054906101000a900473ffffffffffffffffffffffffffffffffffffffff16836040518363ffffffff1660e01b8152600401808373ffffffffffffffffffffffffffffffffffffffff16815260200182815260200192505050602060405180830381600087803b158015610c4057600080fd5b505af1158015610c54573d6000803e3d6000fd5b505050506040513d6020811015610c6a57600080fd5b810190808051906020019092919050505050600360009054906101000a900473ffffffffffffffffffffffffffffffffffffffff1673ffffffffffffffffffffffffffffffffffffffff16ff5b600080828401905083811015610d35576040517f08c379a000000000000000000000000000000000000000000000000000000000815260040180806020018281038252601b8152602001807f536166654d6174683a206164646974696f6e206f766572666c6f77000000000081525060200191505060405180910390fd5b8091505092915050565b6000610d8183836040518060400160405280601f81526020017f536166654d6174683a207375627472616374696f6e20756e646572666c6f7700815250610e59565b905092915050565b600080831415610d9c5760009050610e09565b6000828402905082848281610dad57fe5b0414610e04576040517f08c379a000000000000000000000000000000000000000000000000000000000815260040180806020018281038252602181526020018061100b6021913960400191505060405180910390fd5b809150505b92915050565b6000610e5183836040518060400160405280601a81526020017f536166654d6174683a206469766973696f6e206279207a65726f000000000000815250610f19565b905092915050565b6000838311158290610f06576040517f08c379a00000000000000000000000000000000000000000000000000000000081526004018080602001828103825283818151815260200191508051906020019080838360005b83811015610ecb578082015181840152602081019050610eb0565b50505050905090810190601f168015610ef85780820380516001836020036101000a031916815260200191505b509250505060405180910390fd5b5060008385039050809150509392505050565b60008083118290610fc5576040517f08c379a00000000000000000000000000000000000000000000000000000000081526004018080602001828103825283818151815260200191508051906020019080838360005b83811015610f8a578082015181840152602081019050610f6f565b50505050905090810190601f168015610fb75780820380516001836020036101000a031916815260200191505b509250505060405180910390fd5b506000838581610fd157fe5b04905080915050939250505056fe4f6e6c7920746865206f726967696e20506f6f6c2063616e2063616c6c20746869732066756e6374696f6e536166654d6174683a206d756c7469706c69636174696f6e206f766572666c6f77a26469706673582212200b0fc8d27d7c2bca42fbd6b338016cb0b489ffa026b0c3fddb3af489a69a3c0464736f6c63430007060033536166654d6174683a206d756c7469706c69636174696f6e206f766572666c6f77a2646970667358221220b475033d2f57de1fef872343be82bb7b1cd7ff6bdd9cdfdbcfbae2173f66104664736f6c63430007060033",
  "immutableReferences": {},
  "source": "pragma solidity ^0.7.6;\npragma abicoder v2;\n//SPDX-License-Identifier: MIT\n\nimport \"./utils/SafeMath.sol\";\nimport \"./VTokenInterface.sol\";\nimport \"./VTokenStorage.sol\";\nimport \"./VTokenERC20.sol\";\nimport \"./vLoanPools/VLoanPoolInterface.sol\";\nimport \"./PaladinControllerInterface.sol\";\nimport \"./InterestInterface.sol\";\nimport \"./utils/IERC20.sol\";\n\n//Depending on the pool :\nimport \"./vLoanPools/VAaveLoanPool.sol\";\n\n/** @title vToken Pool contract  */\n/// @author Paladin - Valentin VIGER\ncontract VToken is VTokenERC20, VTokenInterface, VTokenStorage {\n    using SafeMath for uint;\n\n    modifier preventReentry() {\n        //modifier to prevent reentry in internal functions\n        require(!entered);\n        entered = true;\n        _;\n        entered = false;\n    }\n\n    modifier adminOnly() {\n        //allows onyl the admin of this contract to call the function\n        require(msg.sender == admin);\n        _;\n    }\n\n    //Functions\n\n    constructor(\n        string memory _name, \n        string memory _symbol, \n        uint _decimals, \n        address _controller, \n        address _underlying,\n        address _interestModule\n    ){\n        //Set admin & ERC20 values\n        admin = msg.sender;\n        name = _name;\n        symbol = _symbol;\n        decimals = _decimals;\n\n        //Set inital values & modules\n        controller = PaladinControllerInterface(_controller);\n        underlying = IERC20(_underlying);\n        accrualBlockNumber = block.number;\n        interestModule = InterestInterface(_interestModule);\n        borrowIndex = 1e18;\n\n        //Set base values\n        totalSupply = 0;\n        totalBorrowed = 0;\n        totalReserve = 0;\n    }\n\n    /**\n    * @notice Get the underlying balance for this Pool\n    * @dev Get the underlying balance of this Pool\n    * @return uint : balance of this pool in the underlying token\n    */\n    function _underlyingBalance() public view returns(uint){\n        //Return the balance of this contract for the underlying asset\n        return underlying.balanceOf(address(this));\n    }\n    \n    /**\n    * @notice Deposit underlying in the Pool\n    * @dev Deposit underlying, and mints vToken for the user\n    * @param amount Amount of underlying to deposit\n    * @return bool : amount of minted vTokens\n    */\n    function deposit(uint amount) external override preventReentry returns(uint){\n        require(_updateInterest());\n\n        //Retrieve the current exchange rate vToken:underlying\n        uint _exchRate = _exchangeRate();\n\n        //Transfer the underlying to this contract\n        //The amount of underlying needs to be approved before\n        underlying.transferFrom(msg.sender, address(this), amount);\n\n        //Find the amount to mint depending of the previous transfer\n        uint _num = amount.mul(mantissaScale);\n        uint _toMint = _num.div(_exchRate);\n\n        //Mint the vToken : update balances and Supply\n        totalSupply = totalSupply.add(_toMint);\n        balances[msg.sender] = balances[msg.sender].add(_toMint);\n\n        //Emit the Deposit event\n        emit Deposit(msg.sender, amount, address(this));\n\n        //Use the controller to check if the minting was successfull\n        require(controller.depositVerify(address(this), msg.sender, _toMint),'Deposit failed');\n\n        return _toMint;\n    }\n\n    /**\n    * @notice Withdraw underliyng token from the Pool\n    * @dev Transfer underlying token to the user, and burn the corresponding vToken amount\n    * @param amount Amount of vToken to return\n    * @return uint : amount of underlying returned\n    */\n    function withdraw(uint amount) external override preventReentry returns(uint){\n        require(_updateInterest());\n        require(balances[msg.sender] <= amount);\n\n        //Retrieve the current exchange rate vToken:underlying\n        uint _exchRate = _exchangeRate();\n\n        //Find the amount to return depending on the amount of vToken to burn\n        uint _num = amount.mul(_exchRate);\n        uint _toReturn = _num.div(mantissaScale);\n\n        //Check if the pool has enough underlying to return\n        require(_toReturn < _underlyingBalance(), \"Balance too low\");\n\n        //Update the vToken balance & Supply\n        totalSupply = totalSupply.sub(_toReturn);\n        balances[msg.sender] = balances[msg.sender].sub(_toReturn);\n\n        //Make the underlying transfer\n        underlying.transfer(msg.sender, _toReturn);\n\n        //Emit the Withdraw event\n        emit Withdraw(msg.sender, amount, address(this));\n\n        return _toReturn;\n    }\n    \n    /**\n    * @notice Start a Loan\n    * @param amount Amount of underlying to borrow\n    * @param feeAmount Amount of fee to pay to start the loan\n    * @return uint : amount of paid fees\n    */\n    function borrow(uint amount, uint feeAmount) external override returns(uint){\n        return _borrow(msg.sender, amount, feeAmount);\n    }\n\n    /**\n    * @dev Create a Borrow, deploy a Loan Pool and delegate voting power\n    * @param _dest Address of the Borrower\n    * @param _amount Amount of underlying to borrow\n    * @param _feeAmount Amount of fee to pay to start the loan\n    * @return uint : amount of paid fees\n    */\n    function _borrow(address _dest, uint _amount, uint _feeAmount) internal preventReentry returns(uint){\n        //Need the pool to have enough liquidity, and the interests to be up to date\n        require(_amount < _underlyingBalance(), \"Pool too low\");\n        require(_updateInterest());\n\n        //Create a new Borrow struct for this new Loan\n        Borrow memory _newBorrow = Borrow(\n            _dest,\n            address(this),\n            _amount,\n            address(underlying),\n            _feeAmount,\n            borrowIndex,\n            false\n        );\n\n        //And deploy a new Loan Pool contract\n        VAaveLoanPool _newLoan = new VAaveLoanPool(\n            address(this),\n            _dest,\n            address(underlying)\n        );\n\n        //Send the borrowed amount of underlying tokens to the Loan\n        underlying.transfer(address(_newLoan), _amount);\n\n        //And transfer the fees from the Borrower to the Loan\n        underlying.transferFrom(_dest, address(_newLoan), _feeAmount);\n\n        //Start the Loan (and delegate voting power)\n        _newLoan.initiate(_amount, _feeAmount);\n\n        //Update Total Borrowed, and add the new Loan to mappings\n        totalBorrowed = totalBorrowed.add(_amount);\n        borrows.push(address(_newLoan));\n        loanToBorrow[address(_newLoan)] = _newBorrow;\n        borrowsByUser[_dest].push(address(_newLoan));\n\n        //Check the borrow succeeded\n        require(controller.borrowVerify(address(this), _dest, _amount, _feeAmount, address(_newLoan)), \"Borrow failed\");\n\n        //Emit the NewBorrow Event\n        emit NewBorrow(_dest, _amount, address(this));\n\n        //Return the borrowed amount\n        return _amount;\n    }\n    \n    /**\n    * @notice Expand a Loan by paying fees\n    * @param loanPool Address of the Loan\n    * @param feeAmount New amount of fees to pay\n    * @return bool : Amount of fees paid\n    */\n    function expandBorrow(address loanPool, uint feeAmount) external override returns(uint){\n        return _expandBorrow(loanPool, feeAmount);\n    }\n    \n    /**\n    * @notice Kill a non-healthy Loan to collect rewards\n    * @param loanPool Address of the Loan\n    * @return uint : -\n    */\n    function killBorrow(address loanPool) external override returns(uint){\n        return _killBorrow(msg.sender, loanPool);\n    }\n\n    /**\n    * @notice Close a Loan, and return the non-used fees to the Borrower\n    * @param loanPool Address of the Loan\n    * @return uint : -\n    */\n    function closeBorrow(address loanPool) external override returns(uint){\n        return _closeBorrow(loanPool);\n    }\n\n    /**\n    * @notice Transfer the new fees to the Loan, and expand the Loan\n    * @param loanPool Address of the Loan\n    * @param feeAmount New amount of fees to pay\n    * @return bool : Amount of fees paid\n    */\n    function _expandBorrow(address loanPool, uint feeAmount) internal preventReentry returns(uint){\n        //Fetch the corresponding Borrow\n        //And check that the caller is the Borrower, and the Loan is still active\n        Borrow memory __borrow = loanToBorrow[loanPool];\n        require(!__borrow.closed, 'Loan closed');\n        require(__borrow.borrower == msg.sender, 'Not owner');\n        require(_updateInterest());\n        \n        //Load the Loan Pool contract\n        VLoanPoolInterface _loan = VLoanPoolInterface(__borrow.loanPool);\n\n        //Transfer the new fees to the Loan\n        //If success, update the Borrow data, and call the expand fucntion of the Loan\n        underlying.transferFrom(__borrow.borrower, __borrow.loanPool, feeAmount);\n\n        bool success = _loan.expand(feeAmount);\n        require(success, \"Transfer failed\");\n\n        __borrow.feesAmount = __borrow.feesAmount.add(feeAmount);\n\n        loanToBorrow[loanPool]= __borrow;\n\n        return feeAmount;\n    }\n\n    /**\n    * @dev Close a Loan, and return the non-used fees to the Borrower\n    * @param loanPool Address of the Loan\n    * @return uint : -\n    */\n    function _closeBorrow(address loanPool) internal preventReentry returns(uint){\n        //Fetch the corresponding Borrow\n        //And check that the caller is the Borrower, and the Loan is still active\n        Borrow memory __borrow = loanToBorrow[loanPool];\n        require(!__borrow.closed, 'Loan closed');\n        require(__borrow.borrower == msg.sender, 'Not owner');\n        require(_updateInterest());\n\n        //Load the Loan contract\n        VLoanPoolInterface _loan = VLoanPoolInterface(__borrow.loanPool);\n\n        //Calculates the amount of fees used\n        uint _feesUsed = __borrow.amount.sub(__borrow.amount.mul(__borrow.borrowIndex).div(borrowIndex));\n        \n        //Close and destroy the loan\n        _loan.closeLoan(_feesUsed);\n\n        //Set the Borrow as closed\n        __borrow.closed = true;\n\n        //Update the storage varaibles\n        totalBorrowed = totalBorrowed.sub(__borrow.amount);\n\n        loanToBorrow[loanPool]= __borrow;\n\n        //Emit the CloseLoan Event\n        emit CloseLoan(__borrow.borrower, __borrow.amount, address(this));\n\n        return 0;\n    }\n\n    /**\n    * @dev Kill a non-healthy Loan to collect rewards\n    * @param killer Address of the Killer\n    * @param loanPool Address of the Loan\n    * @return uint : -\n    */\n    function _killBorrow(address killer, address loanPool) internal preventReentry returns(uint){\n        //Fetch the corresponding Borrow\n        //And check that the killer is not the Borrower, and the Loan is still active\n        Borrow memory __borrow = loanToBorrow[loanPool];\n        require(!__borrow.closed, 'Loan closed');\n        require(__borrow.borrower != killer, 'Loan owner');\n        require(_updateInterest());\n\n        //Calculate the amount of fee used, and check if the Loan is killable\n        uint _feesUsed = __borrow.amount.sub(__borrow.amount.mul(__borrow.borrowIndex).div(borrowIndex));\n        uint _loanHealthFactor = uint(1e18) - _feesUsed.mul(uint(1e18)).div(__borrow.feesAmount);\n        require(_loanHealthFactor <= killFactor, \"Not killable\");\n\n        //Load the Loan\n        VLoanPoolInterface _loan = VLoanPoolInterface(__borrow.loanPool);\n\n        //Kill the Loan\n        _loan.killLoan(killer, killerRatio);\n\n        //Close the Loan, and update storage variables\n        __borrow.closed = true;\n\n        totalBorrowed = totalBorrowed.sub(__borrow.amount);\n\n        loanToBorrow[loanPool]= __borrow;\n\n        return 0;\n    }\n\n    /**\n    * @notice Return the list of all Loans for this Pool (closed and active)\n    * @return address[] : list of Loans\n    */\n    function getLoansPools() external view override returns(address [] memory){\n        //Return the addresses of all LoanPools (old ones and active ones)\n        return borrows;\n    }\n    \n    /**\n    * @notice Return all the Loans for a given address\n    * @param borrower Address of the user\n    * @return address[] : list of Loans\n    */\n    function getLoansByBorrowerStored(address borrower) external view override returns(address [] memory){\n        return borrowsByUser[borrower];\n    }\n\n    /**\n    * @notice Update the Interests & Return all the Loans for a given address\n    * @param borrower Address of the user\n    * @return address[] : list of Loans\n    */\n    function getLoansByBorrower(address borrower) external override preventReentry returns(address [] memory){\n        require(_updateInterest());\n        return borrowsByUser[borrower];\n    }\n\n    /**\n    * @notice Return the stored Borrow data for a given Loan\n    * @param __loanPool address of the new Controller Admin\n    * Composants of a Borrow struct\n    */\n    function getBorrowDataStored(address __loanPool) external view override returns(\n        address _borrower,\n        address _loanPool,\n        uint _amount,\n        address _underlying,\n        uint _feesAmount,\n        uint _feesUsed,\n        bool _closed\n    ){\n        return _getBorrowData(__loanPool);\n    }\n\n    /**\n    * @notice Update the Interests & Return the Borrow data for a given Loan\n    * @param __loanPool address of the new Controller Admin\n    * Composants of a Borrow struct\n    */\n    function getBorrowData(address __loanPool) external override returns(\n        address _borrower,\n        address _loanPool,\n        uint _amount,\n        address _underlying,\n        uint _feesAmount,\n        uint _feesUsed,\n        bool _closed\n    ){\n        require(_updateInterest());\n        return _getBorrowData(__loanPool);\n    }\n\n    /**\n    * @dev Return the Borrow data for a given Loan\n    * @param __loanPool address of the new Controller Admin\n    * Composants of a Borrow struct\n    */\n    function _getBorrowData(address __loanPool) internal view returns(\n        address _borrower,\n        address _loanPool,\n        uint _amount,\n        address _underlying,\n        uint _feesAmount,\n        uint _feesUsed,\n        bool _closed\n    ){\n        //Return the data inside a Borrow struct\n        Borrow memory __borrow = loanToBorrow[__loanPool];\n        return (\n            __borrow.borrower,\n            __borrow.loanPool,\n            __borrow.amount,\n            __borrow.underlying,\n            __borrow.feesAmount,\n            //Calculate amount of fees used\n            __borrow.amount.sub(__borrow.amount.mul(__borrow.borrowIndex).div(borrowIndex)),\n            __borrow.closed\n        );\n\n    }\n    \n    /**\n    * @notice Get the Borrow Rate for this Pool\n    * @dev Get the Borrow Rate from the Interest Module\n    * @return uint : Borrow Rate (scale 1e18)\n    */\n    function borrowRatePerBlock() external view override returns (uint){\n        return interestModule.getBorrowRate(_underlyingBalance(), totalBorrowed, totalReserve);\n    }\n    \n    /**\n    * @notice Get the Supply Rate for this Pool\n    * @dev Get the Supply Rate from the Interest Module\n    * @return uint : Supply Rate (scale 1e18)\n    */\n    function supplyRatePerBlock() external view override returns (uint){\n        return interestModule.getSupplyRate(_underlyingBalance(), totalBorrowed, totalReserve, reserveFactor);\n    }\n    \n    /**\n    * @notice Return the total amount of funds borrowed\n    * @return uint : Total amount of token borrowed (scale 1e18)\n    */\n    function totalBorrowsCurrent() external override preventReentry returns (uint){\n        _updateInterest();\n        return totalBorrowed;\n    }\n    \n    /**\n    * @dev Calculates the current exchange rate\n    * @return uint : current exchange rate (scale 1e18)\n    */\n    function _exchangeRate() internal view returns (uint){\n        //If no vTokens where minted, use the initial exchange rate\n        if(totalSupply == 0){\n            return initialExchangeRate;\n        }\n        else{\n            // Exchange Rate = (Cash + Borrows - Reserve) / Supply\n            uint _cash = _underlyingBalance();\n            uint _availableCash = _cash.add(totalBorrowed).sub(totalReserve);\n            return _availableCash.mul(1e18).div(totalSupply);\n        }\n    }\n\n    /**\n    * @notice Get the current exchange rate for the vToken\n    * @dev Updates interest & Calls internal function _exchangeRate\n    * @return uint : current exchange rate (scale 1e18)\n    */\n    function exchangeRateCurrent() external override returns (uint){\n        _updateInterest();\n        return _exchangeRate();\n    }\n    \n        /**\n    * @notice Get the stored exchange rate for the vToken\n    * @dev Calls internal function _exchangeRate\n    * @return uint : current exchange rate (scale 1e18)\n    */\n    function exchangeRateStored() external view override returns (uint){\n        return _exchangeRate();\n    }\n\n    /**\n    * @dev Updates Inetrest and variables for this Pool\n    * @return bool : Update success\n    */\n    function _updateInterest() public returns (bool){\n        //Get the current block\n        //Check if the Pool has already been updated this block\n        uint _currentBlock = block.number;\n        if(_currentBlock == accrualBlockNumber){\n            return true;\n        }\n\n        //Get Pool variables from Storage\n        uint _cash = _underlyingBalance();\n        uint _borrows = totalBorrowed;\n        uint _reserves = totalReserve;\n        uint _oldBorrowIndex = borrowIndex;\n\n        //Get the Borrow Rate from the Interest Module\n        uint _borrowRate = interestModule.getBorrowRate(_cash, _borrows, _reserves);\n\n        //Delta of blocks since the last update\n        uint _ellapsedBlocks = _currentBlock.sub(accrualBlockNumber);\n\n        /*\n        Interest Factor = Borrow Rate * Ellapsed Blocks\n        Accumulated Interests = Interest Factor * Borrows\n        Total Borrows = Borrows + Accumulated Interests\n        Total Reserve = Reserve + Accumulated Interests * Reserve Factor\n        Borrow Index = old Borrow Index + old Borrow Index * Accumulated Interests \n        */\n        uint _interestFactor = _borrowRate.mul(_ellapsedBlocks);\n        uint _accumulatedInterest = _interestFactor.mul(_borrows).div(mantissaScale);\n        uint _newBorrows = _borrows.add(_accumulatedInterest);\n        uint _newReserve = _reserves.add(reserveFactor.mul(_accumulatedInterest).div(mantissaScale));\n        uint _newBorrowIndex = _oldBorrowIndex.add(_interestFactor.mul(_oldBorrowIndex).div(mantissaScale));\n\n        //Update storage\n        totalBorrowed = _newBorrows;\n        totalReserve = _newReserve;\n        borrowIndex = _newBorrowIndex;\n        accrualBlockNumber = _currentBlock;\n\n        return true;\n    }\n\n    \n\n\n    // Admin Functions\n\n    /**\n    * @notice Set a new Admin\n    * @dev Changes the address for the admin parameter\n    * @param _newAdmin address of the new Controller Admin\n    */\n    function setNewAdmin(address payable _newAdmin) external override adminOnly {\n        admin = _newAdmin;\n    }\n\n    /**\n    * @notice Set a new Controller\n    * @dev Loads the new Controller for the Pool\n    * @param  _newController address of the new Controller\n    */\n    function setNewController(address _newController) external override adminOnly {\n        controller = PaladinControllerInterface(_newController);\n    }\n\n    /**\n    * @notice Set a new Interest Module\n    * @dev Load a new Interest Module\n    * @param _interestModule address of the new Interest Module\n    */\n    function setNewInterestModule(address _interestModule) external override adminOnly {\n        interestModule = InterestInterface(_interestModule);\n    }\n\n    /**\n    * @notice Add underlying in the Pool Reserve\n    * @dev Transfer underlying token from the admin to the Pool\n    * @param _amount Amount of underlying to transfer\n    */\n    function addReserve(uint _amount) external override adminOnly {\n        require(_updateInterest());\n\n        //Transfer from the admin to the Pool\n        underlying.transferFrom(admin, address(this), _amount);\n\n        totalReserve = totalReserve.add(_amount);\n    }\n\n    /**\n    * @notice Remove underlying from the Pool Reserve\n    * @dev Transfer underlying token from the Pool to the admin\n    * @param _amount Amount of underlying to transfer\n    */\n    function removeReserve(uint _amount) external override adminOnly {\n        //Check if there is enough in the reserve\n        require(_updateInterest());\n        require(_amount < _underlyingBalance() && _amount < totalReserve);\n\n        //Transfer underlying to the admin\n        underlying.transfer(admin, _amount);\n\n        totalReserve = totalReserve.sub(_amount);\n    }\n\n}",
  "sourcePath": "/Users/valentin/Paladin-Protocol/contracts/VToken.sol",
  "compiler": {
    "name": "solc",
    "version": "0.7.6+commit.7338295f.Emscripten.clang"
  },
  "schemaVersion": "3.3.1",
  "updatedAt": "2021-02-03T20:48:08.630Z",
  "devdoc": {
    "author": "Paladin - Valentin VIGER",
    "kind": "dev",
    "methods": {
      "_underlyingBalance()": {
        "details": "Get the underlying balance of this Pool",
        "returns": {
          "_0": "uint : balance of this pool in the underlying token"
        }
      },
      "_updateInterest()": {
        "details": "Updates Inetrest and variables for this Pool",
        "returns": {
          "_0": "bool : Update success"
        }
      },
      "addReserve(uint256)": {
        "details": "Transfer underlying token from the admin to the Pool",
        "params": {
          "_amount": "Amount of underlying to transfer"
        }
      },
      "borrow(uint256,uint256)": {
        "params": {
          "amount": "Amount of underlying to borrow",
          "feeAmount": "Amount of fee to pay to start the loan"
        },
        "returns": {
          "_0": "uint : amount of paid fees"
        }
      },
      "borrowRatePerBlock()": {
        "details": "Get the Borrow Rate from the Interest Module",
        "returns": {
          "_0": "uint : Borrow Rate (scale 1e18)"
        }
      },
      "closeBorrow(address)": {
        "params": {
          "loanPool": "Address of the Loan"
        },
        "returns": {
          "_0": "uint : -"
        }
      },
      "deposit(uint256)": {
        "details": "Deposit underlying, and mints vToken for the user",
        "params": {
          "amount": "Amount of underlying to deposit"
        },
        "returns": {
          "_0": "bool : amount of minted vTokens"
        }
      },
      "exchangeRateCurrent()": {
        "details": "Updates interest & Calls internal function _exchangeRate",
        "returns": {
          "_0": "uint : current exchange rate (scale 1e18)"
        }
      },
      "exchangeRateStored()": {
        "details": "Calls internal function _exchangeRate",
        "returns": {
          "_0": "uint : current exchange rate (scale 1e18)"
        }
      },
      "expandBorrow(address,uint256)": {
        "params": {
          "feeAmount": "New amount of fees to pay",
          "loanPool": "Address of the Loan"
        },
        "returns": {
          "_0": "bool : Amount of fees paid"
        }
      },
      "getBorrowData(address)": {
        "params": {
          "__loanPool": "address of the new Controller Admin Composants of a Borrow struct"
        }
      },
      "getBorrowDataStored(address)": {
        "params": {
          "__loanPool": "address of the new Controller Admin Composants of a Borrow struct"
        }
      },
      "getLoansByBorrower(address)": {
        "params": {
          "borrower": "Address of the user"
        },
        "returns": {
          "_0": "address[] : list of Loans"
        }
      },
      "getLoansByBorrowerStored(address)": {
        "params": {
          "borrower": "Address of the user"
        },
        "returns": {
          "_0": "address[] : list of Loans"
        }
      },
      "getLoansPools()": {
        "returns": {
          "_0": "address[] : list of Loans"
        }
      },
      "killBorrow(address)": {
        "params": {
          "loanPool": "Address of the Loan"
        },
        "returns": {
          "_0": "uint : -"
        }
      },
      "removeReserve(uint256)": {
        "details": "Transfer underlying token from the Pool to the admin",
        "params": {
          "_amount": "Amount of underlying to transfer"
        }
      },
      "setNewAdmin(address)": {
        "details": "Changes the address for the admin parameter",
        "params": {
          "_newAdmin": "address of the new Controller Admin"
        }
      },
      "setNewController(address)": {
        "details": "Loads the new Controller for the Pool",
        "params": {
          "_newController": "address of the new Controller"
        }
      },
      "setNewInterestModule(address)": {
        "details": "Load a new Interest Module",
        "params": {
          "_interestModule": "address of the new Interest Module"
        }
      },
      "supplyRatePerBlock()": {
        "details": "Get the Supply Rate from the Interest Module",
        "returns": {
          "_0": "uint : Supply Rate (scale 1e18)"
        }
      },
      "totalBorrowsCurrent()": {
        "returns": {
          "_0": "uint : Total amount of token borrowed (scale 1e18)"
        }
      },
      "withdraw(uint256)": {
        "details": "Transfer underlying token to the user, and burn the corresponding vToken amount",
        "params": {
          "amount": "Amount of vToken to return"
        },
        "returns": {
          "_0": "uint : amount of underlying returned"
        }
      }
    },
    "version": 1
  },
  "userdoc": {
    "events": {
      "CloseLoan(address,uint256,address)": {
        "notice": "Event when a loan is ended "
      },
      "Deposit(address,uint256,address)": {
        "notice": "Event when an user deposit tokens in the pool "
      },
      "NewBorrow(address,uint256,address)": {
        "notice": "Event when a loan is started "
      },
      "Withdraw(address,uint256,address)": {
        "notice": "Event when an user withdraw tokens from the pool "
      },
      "newAdmin(address,address)": {
        "notice": "(Admin) Event when the contract admin is updated "
      },
      "newController(address,address)": {
        "notice": "(Admin) Event when the contract controller is updated "
      }
    },
    "kind": "user",
    "methods": {
      "_underlyingBalance()": {
        "notice": "Get the underlying balance for this Pool"
      },
      "accrualBlockNumber()": {
        "notice": "Last block where the interest where updated for this pool "
      },
      "addReserve(uint256)": {
        "notice": "Add underlying in the Pool Reserve"
      },
      "borrow(uint256,uint256)": {
        "notice": "Start a Loan"
      },
      "borrowIndex()": {
        "notice": "Borrow Index : increase at each interest update to represent borrows interests increasing "
      },
      "borrowRatePerBlock()": {
        "notice": "Get the Borrow Rate for this Pool"
      },
      "closeBorrow(address)": {
        "notice": "Close a Loan, and return the non-used fees to the Borrower"
      },
      "controller()": {
        "notice": "Paladin Controller contract "
      },
      "decimals()": {
        "notice": "ERC20 token Decimals "
      },
      "deposit(uint256)": {
        "notice": "Deposit underlying in the Pool"
      },
      "exchangeRateCurrent()": {
        "notice": "Get the current exchange rate for the vToken"
      },
      "exchangeRateStored()": {
        "notice": "Get the stored exchange rate for the vToken"
      },
      "expandBorrow(address,uint256)": {
        "notice": "Expand a Loan by paying fees"
      },
      "getBorrowData(address)": {
        "notice": "Update the Interests & Return the Borrow data for a given Loan"
      },
      "getBorrowDataStored(address)": {
        "notice": "Return the stored Borrow data for a given Loan"
      },
      "getLoansByBorrower(address)": {
        "notice": "Update the Interests & Return all the Loans for a given address"
      },
      "getLoansByBorrowerStored(address)": {
        "notice": "Return all the Loans for a given address"
      },
      "getLoansPools()": {
        "notice": "Return the list of all Loans for this Pool (closed and active)"
      },
      "killBorrow(address)": {
        "notice": "Kill a non-healthy Loan to collect rewards"
      },
      "name()": {
        "notice": "ERC20 token Name "
      },
      "removeReserve(uint256)": {
        "notice": "Remove underlying from the Pool Reserve"
      },
      "reserveFactor()": {
        "notice": "Part of the borrows interest to set as Reserves "
      },
      "setNewAdmin(address)": {
        "notice": "Set a new Admin"
      },
      "setNewController(address)": {
        "notice": "Set a new Controller"
      },
      "setNewInterestModule(address)": {
        "notice": "Set a new Interest Module"
      },
      "supplyRatePerBlock()": {
        "notice": "Get the Supply Rate for this Pool"
      },
      "symbol()": {
        "notice": "ERC20 token Symbol "
      },
      "totalBorrowed()": {
        "notice": "Total of underlying tokens \"borrowed\" (in Loan Pool contracts) "
      },
      "totalBorrowsCurrent()": {
        "notice": "Return the total amount of funds borrowed"
      },
      "totalReserve()": {
        "notice": "Total of the current Reserve "
      },
      "totalSupply()": {
        "notice": "Total of vToken in circulation "
      },
      "underlying()": {
        "notice": "Underlying ERC20 token of this Pool "
      },
      "withdraw(uint256)": {
        "notice": "Withdraw underliyng token from the Pool"
      }
    },
    "version": 1
  }
}