{
  "contractName": "VTokenStorage",
  "abi": [
    {
      "inputs": [],
      "name": "accrualBlockNumber",
      "outputs": [
        {
          "internalType": "uint256",
          "name": "",
          "type": "uint256"
        }
      ],
      "stateMutability": "view",
      "type": "function"
    },
    {
      "inputs": [],
      "name": "borrowIndex",
      "outputs": [
        {
          "internalType": "uint256",
          "name": "",
          "type": "uint256"
        }
      ],
      "stateMutability": "view",
      "type": "function"
    },
    {
      "inputs": [],
      "name": "controller",
      "outputs": [
        {
          "internalType": "contract PaladinControllerInterface",
          "name": "",
          "type": "address"
        }
      ],
      "stateMutability": "view",
      "type": "function"
    },
    {
      "inputs": [],
      "name": "reserveFactor",
      "outputs": [
        {
          "internalType": "uint256",
          "name": "",
          "type": "uint256"
        }
      ],
      "stateMutability": "view",
      "type": "function"
    },
    {
      "inputs": [],
      "name": "totalBorrowed",
      "outputs": [
        {
          "internalType": "uint256",
          "name": "",
          "type": "uint256"
        }
      ],
      "stateMutability": "view",
      "type": "function"
    },
    {
      "inputs": [],
      "name": "totalReserve",
      "outputs": [
        {
          "internalType": "uint256",
          "name": "",
          "type": "uint256"
        }
      ],
      "stateMutability": "view",
      "type": "function"
    },
    {
      "inputs": [],
      "name": "totalSupply",
      "outputs": [
        {
          "internalType": "uint256",
          "name": "",
          "type": "uint256"
        }
      ],
      "stateMutability": "view",
      "type": "function"
    },
    {
      "inputs": [],
      "name": "underlying",
      "outputs": [
        {
          "internalType": "contract IERC20",
          "name": "",
          "type": "address"
        }
      ],
      "stateMutability": "view",
      "type": "function"
    }
  ],
  "bytecode": "0x608060405260008060146101000a81548160ff02191690831515021790555066470de4df8200006005556702c68af0bb14000060065534801561004157600080fd5b5061024d806100516000396000f3fe608060405234801561001057600080fd5b50600436106100885760003560e01c80636c540baf1161005b5780636c540baf146101055780636f307dc314610123578063aa5af0fd14610157578063f77c47911461017557610088565b806318160ddd1461008d5780634322b714146100ab5780634c19386c146100c95780634c68df67146100e7575b600080fd5b6100956101a9565b6040518082815260200191505060405180910390f35b6100b36101af565b6040518082815260200191505060405180910390f35b6100d16101b5565b6040518082815260200191505060405180910390f35b6100ef6101bb565b6040518082815260200191505060405180910390f35b61010d6101c1565b6040518082815260200191505060405180910390f35b61012b6101c7565b604051808273ffffffffffffffffffffffffffffffffffffffff16815260200191505060405180910390f35b61015f6101eb565b6040518082815260200191505060405180910390f35b61017d6101f1565b604051808273ffffffffffffffffffffffffffffffffffffffff16815260200191505060405180910390f35b60045481565b60065481565b60035481565b60025481565b60075481565b60008054906101000a900473ffffffffffffffffffffffffffffffffffffffff1681565b60085481565b600c60009054906101000a900473ffffffffffffffffffffffffffffffffffffffff168156fea26469706673582212209472b457bd99cd9df93faa3b5a7195cd0153fd63437c06e01f867dab921430d264736f6c63430007060033",
  "immutableReferences": {},
  "source": "pragma solidity ^0.7.6;\n//SPDX-License-Identifier: MIT\n\nimport \"./PaladinControllerInterface.sol\";\nimport \"./InterestInterface.sol\";\nimport \"./VTokenInterface.sol\";\nimport \"./utils/IERC20.sol\";\n\n/** @title VToken Storage contract  */\n/// @author Paladin - Valentin VIGER\ncontract VTokenStorage {\n\n    /** @notice Struct of a Borrow */\n    struct Borrow {\n        //address of the borrower\n        address borrower;\n        //address of the Loan Pool contract holding the loan\n        address loanPool;\n        //amount of the loan\n        uint amount;\n        //address of the underlying for this loan\n        address underlying;\n        //amount of fees (in the underlying token) paid by the borrower\n        uint feesAmount;\n        //borrow index at the loan creation\n        uint borrowIndex;\n        //true if the loan is active, false is loan was closed or killed\n        bool closed;\n    }\n\n    //VToken variables & Mappings\n\n    /** @notice Underlying ERC20 token of this Pool */\n    IERC20 public underlying;\n\n    /** @dev Boolean to prevent reentry in some functions */\n    bool internal entered = false;\n\n    /** @dev Admin address for this Pool */\n    address payable internal admin;\n\n    /** @notice Total of the current Reserve */\n    uint public totalReserve;\n    /** @notice Total of underlying tokens \"borrowed\" (in Loan Pool contracts) */\n    uint public totalBorrowed;\n    /** @notice Total of vToken in circulation */\n    uint public totalSupply;\n\n    /** @dev Maximum Borrow Rate to update interest */\n    uint internal constant maxBorrowRate = 0.0002e18;\n\n    /** @dev Healt Factor to kill a loan */\n    uint internal constant killFactor = 0.15e18;\n    /** @dev Ratio of the borrow fees to pay the killer of a loan */\n    uint internal constant killerRatio = 0.98e18;\n\n    /** @dev Base value to mint vTokens */\n    uint internal initialExchangeRate = 0.02e18;\n    /** @notice Part of the borrows interest to set as Reserves */\n    uint public reserveFactor = 0.2e18;\n    /** @notice Last block where the interest where updated for this pool */\n    uint public accrualBlockNumber;\n    /** @notice Borrow Index : increase at each interest update to represent borrows interests increasing */\n    uint public borrowIndex;\n\n    /** @dev Scale used to represent decimal values */\n    uint constant internal mantissaScale = 1e18;\n\n    /** @dev Mapping of all borrow contract address for each user */\n    mapping (address => address[]) internal borrowsByUser;\n    /** @dev Mapping of Loan Pool contract address to Borrow struct */\n    mapping (address => Borrow) internal loanToBorrow;\n    /** @dev List of all borrows (current & closed) */\n    address[] internal borrows;\n\n\n    //Modules\n\n    /** @notice Paladin Controller contract */\n    PaladinControllerInterface public controller;\n    /** @dev Current Inetrest Module */\n    InterestInterface internal interestModule;\n    \n}",
  "sourcePath": "/Users/valentin/Paladin-Protocol/contracts/VTokenStorage.sol",
  "compiler": {
    "name": "solc",
    "version": "0.7.6+commit.7338295f.Emscripten.clang"
  },
  "schemaVersion": "3.3.1",
  "updatedAt": "2021-02-03T20:48:08.677Z",
  "devdoc": {
    "author": "Paladin - Valentin VIGER",
    "kind": "dev",
    "methods": {},
    "stateVariables": {
      "admin": {
        "details": "Admin address for this Pool "
      },
      "borrows": {
        "details": "List of all borrows (current & closed) "
      },
      "borrowsByUser": {
        "details": "Mapping of all borrow contract address for each user "
      },
      "entered": {
        "details": "Boolean to prevent reentry in some functions "
      },
      "initialExchangeRate": {
        "details": "Base value to mint vTokens "
      },
      "interestModule": {
        "details": "Current Inetrest Module "
      },
      "killFactor": {
        "details": "Healt Factor to kill a loan "
      },
      "killerRatio": {
        "details": "Ratio of the borrow fees to pay the killer of a loan "
      },
      "loanToBorrow": {
        "details": "Mapping of Loan Pool contract address to Borrow struct "
      },
      "mantissaScale": {
        "details": "Scale used to represent decimal values "
      },
      "maxBorrowRate": {
        "details": "Maximum Borrow Rate to update interest "
      }
    },
    "version": 1
  },
  "userdoc": {
    "kind": "user",
    "methods": {
      "accrualBlockNumber()": {
        "notice": "Last block where the interest where updated for this pool "
      },
      "borrowIndex()": {
        "notice": "Borrow Index : increase at each interest update to represent borrows interests increasing "
      },
      "controller()": {
        "notice": "Paladin Controller contract "
      },
      "reserveFactor()": {
        "notice": "Part of the borrows interest to set as Reserves "
      },
      "totalBorrowed()": {
        "notice": "Total of underlying tokens \"borrowed\" (in Loan Pool contracts) "
      },
      "totalReserve()": {
        "notice": "Total of the current Reserve "
      },
      "totalSupply()": {
        "notice": "Total of vToken in circulation "
      },
      "underlying()": {
        "notice": "Underlying ERC20 token of this Pool "
      }
    },
    "version": 1
  }
}